:020000040800F2
:1000000000500020712C0008152700081727000851
:10001000192700081B2700081D2700080000000002
:100020000000000000000000000000001F27000882
:1000300021270008000000002327000825270008CA
:10004000B92C0008B92C0008B92C0008B92C0008FC
:10005000B92C0008B92C0008B92C0008B92C0008EC
:10006000B92C0008B92C0008B92C0008B92C0008DC
:10007000B92C0008B92C0008B92C0008B92C0008CC
:10008000B92C0008B92C0008B92C0008B92C0008BC
:10009000B92C0008B92C0008B92C0008B92C0008AC
:1000A000B92C0008B92C0008B92C0008B92C00089C
:1000B000B92C000829270008B92C0008B92C000821
:1000C000B92C0008B92C0008B92C0008B92C00087C
:1000D000B92C0008B92C0008B92C000835270008F5
:1000E00041270008B92C0008B92C000800000000C6
:1000F0000000000000000000000000000000000000
:0C01000000000000000000005FF808F1A3
:1001100010B5054C237833B9044B13B10448AFF341
:1001200000800123237010BD0003002000000000A8
:1001300010B1000808B5034B1BB103490348AFF3E6
:10014000008008BD000000000403002010B100087A
:1001500081F0004102E000BF83F0004330B54FEA78
:1001600041044FEA430594EA050F08BF90EA020FE5
:100170001FBF54EA000C55EA020C7FEA645C7FEA78
:10018000655C00F0E2804FEA5454D4EB5555B8BF9B
:100190006D420CDD2C4480EA020281EA030382EA0C
:1001A000000083EA010180EA020281EA0303362D9E
:1001B00088BF30BD11F0004F4FEA01314FF4801C71
:1001C0004CEA113102D0404261EB410113F0004F83
:1001D0004FEA03334CEA133302D0524263EB43033A
:1001E00094EA050F00F0A780A4F10104D5F1200ED8
:1001F0000DDB02FA0EFC22FA05F2801841F1000133
:1002000003FA0EF2801843FA05F359410EE0A5F106
:1002100020050EF1200E012A03FA0EFC28BF4CF037
:10022000020C43FA05F3C01851EBE37101F00045ED
:1002300007D54FF0000EDCF1000C7EEB00006EEBFA
:100240000101B1F5801F1BD3B1F5001F0CD3490884
:100250005FEA30004FEA3C0C04F101044FEA4452DB
:1002600012F5800F80F09A80BCF1004F08BF5FEA62
:10027000500C50F1000041EB045141EA050130BD42
:100280005FEA4C0C404141EB0101013C28BFB1F554
:10029000801FE9D291F0000F04BF01460020B1FA9F
:1002A00081F308BF2033A3F10B03B3F120020CDA72
:1002B0000C3208DD02F1140CC2F10C0201FA0CF050
:1002C00021FA02F10CE002F11402D8BFC2F1200CB5
:1002D00001FA02F120FA0CFCDCBF41EA0C0190406B
:1002E000E41AA2BF01EB0451294330BD6FEA0404B4
:1002F0001F3C1CDA0C340EDC04F11404C4F120029F
:1003000020FA04F001FA02F340EA030021FA04F3B0
:1003100045EA030130BDC4F10C04C4F1200220FA07
:1003200002F001FA04F340EA0300294630BD21FA45
:1003300004F0294630BD94F0000F83F4801306BF0B
:1003400081F480110134013D4EE77FEA645C18BFFF
:100350007FEA655C29D094EA050F08BF90EA020F96
:1003600005D054EA000C04BF1946104630BD91EA8E
:10037000030F1EBF0021002030BD5FEA545C05D191
:100380004000494128BF41F0004130BD14F58004D0
:100390003CBF01F5801130BD01F0004545F0FE4144
:1003A00041F470014FF0000030BD7FEA645C1ABF79
:1003B000194610467FEA655C1CBF0B46024650EAB0
:1003C000013406BF52EA033591EA030F41F40021DC
:1003D00030BD00BF90F0000F04BF0021704730B562
:1003E0004FF4806404F132044FF000054FF0000137
:1003F00050E700BF90F0000F04BF0021704730B5F8
:100400004FF4806404F1320410F0004548BF4042CC
:100410004FF000013EE700BF42004FEAE2014FEA21
:1004200031014FEA02701FBF12F07F4393F07F4FFC
:1004300081F06051704732F07F4208BF704793F0FF
:100440007F4F04BF41F40021704730B54FF4607412
:1004500001F0004521F000411CE700BF50EA010215
:1004600008BF704730B54FF000050AE050EA0102BE
:1004700008BF704730B511F0004502D5404261EB2E
:1004800041014FF4806404F132045FEA915C3FF46F
:10049000D8AE4FF003025FEADC0C18BF03325FEA0C
:1004A000DC0C18BF033202EBDC02C2F1200300FABD
:1004B00003FC20FA02F001FA03FE40EA0E0021FAE2
:1004C00002F11444BDE600BF70B54FF0FF0C4CF4D0
:1004D000E06C1CEA11541DBF1CEA135594EA0C0F82
:1004E00095EA0C0F00F0DEF82C4481EA030621EABD
:1004F0004C5123EA4C5350EA013518BF52EA0335F8
:1005000041F4801143F4801338D0A0FB02CE4FF0A9
:100510000005E1FB02E506F00042E0FB03E54FF0D9
:100520000006E1FB03569CF0000F18BF4EF0010ED1
:10053000A4F1FF04B6F5007F64F5407404D25FEACD
:100540004E0E6D4146EB060642EAC62141EA555180
:100550004FEAC52040EA5E504FEACE2EB4F1FD0CC2
:1005600088BFBCF5E06F1ED8BEF1004F08BF5FEA40
:10057000500E50F1000041EB045170BD06F00046F2
:1005800046EA010140EA020081EA0301B4EB5C049F
:10059000C2BFD4EB0C0541EA045170BD41F4801197
:1005A0004FF0000E013C00F3AB8014F1360FDEBFBC
:1005B000002001F0004170BDC4F10004203C35DA98
:1005C0000C341BDC04F11404C4F1200500FA05F31B
:1005D00020FA04F001FA05F240EA020001F00042BC
:1005E00021F0004110EBD37021FA04F642EB060132
:1005F0005EEA430E08BF20EAD37070BDC4F10C045C
:10060000C4F1200500FA04F320FA05F001FA04F21F
:1006100040EA020001F0004110EBD37041F100010B
:100620005EEA430E08BF20EAD37070BDC4F1200516
:1006300000FA05F24EEA020E20FA04F301FA05F27E
:1006400043EA020321FA04F001F0004121FA04F226
:1006500020EA020000EBD3705EEA430E08BF20EAF6
:10066000D37070BD94F0000F0FD101F00046400030
:1006700041EB010111F4801F08BF013CF7D041EAB2
:10068000060195F0000F18BF704703F000465200B6
:1006900043EB030313F4801F08BF013DF7D043EA87
:1006A0000603704794EA0C0F0CEA135518BF95EA3D
:1006B0000C0F0CD050EA410618BF52EA4306D1D1C4
:1006C00081EA030101F000414FF0000070BD50EAE3
:1006D000410606BF1046194652EA430619D094EA6D
:1006E0000C0F02D150EA013613D195EA0C0F05D157
:1006F00052EA03361CBF104619460AD181EA0301AB
:1007000001F0004141F0FE4141F470014FF0000062
:1007100070BD41F0FE4141F4780170BD70B54FF0FD
:10072000FF0C4CF4E06C1CEA11541DBF1CEA13557D
:1007300094EA0C0F95EA0C0F00F0A7F8A4EB05045F
:1007400081EA030E52EA03354FEA013100F0888056
:100750004FEA03334FF0805545EA131343EA12631F
:100760004FEA022245EA111545EA10654FEA0026D4
:100770000EF000419D4208BF964244F1FD0404F58D
:10078000407402D25B084FEA3202B61A65EB0305E9
:100790005B084FEA32024FF480104FF4002CB6EBA6
:1007A000020E75EB030E22BFB61A754640EA0C0026
:1007B0005B084FEA3202B6EB020E75EB030E22BF66
:1007C000B61A754640EA5C005B084FEA3202B6EBA7
:1007D000020E75EB030E22BFB61A754640EA9C0066
:1007E0005B084FEA3202B6EB020E75EB030E22BF36
:1007F000B61A754640EADC0055EA060E18D04FEAF4
:10080000051545EA16754FEA06164FEAC30343EA93
:1008100052734FEAC2025FEA1C1CC0D111F4801F60
:100820000BD141EA00014FF000004FF0004CB6E759
:1008300011F4801F04BF01430020B4F1FD0C88BFF8
:10084000BCF5E06F3FF6AFAEB5EB030C04BFB6EB03
:10085000020C5FEA500C50F1000041EB045170BDF6
:100860000EF0004E4EEA113114EB5C04C2BFD4EB23
:100870000C0541EA045170BD41F480114FF0000EA7
:10088000013C90E645EA060E8DE60CEA135594EA23
:100890000C0F08BF95EA0C0F3FF43BAF94EA0C0F26
:1008A0000AD150EA01347FF434AF95EA0C0F7FF49B
:1008B00025AF104619462CE795EA0C0F06D152EAEF
:1008C00003353FF4FDAE1046194622E750EA4106D3
:1008D00018BF52EA43067FF4C5AE50EA41047FF4E4
:1008E0000DAF52EA43057FF4EBAE12E74FF0FF3C49
:1008F00006E000BF4FF0010C02E000BF4FF0010C1A
:100900004DF804CD4FEA410C7FEA6C5C4FEA430C92
:1009100018BF7FEA6C5C1BD001B050EA410C0CBFE1
:1009200052EA430C91EA030F02BF90EA020F002043
:10093000704710F1000F91EA030F58BF994208BFAA
:1009400090422CBFD8176FEAE37040F00100704767
:100950004FEA410C7FEA6C5C02D150EA013C07D1BE
:100960004FEA430C7FEA6C5CD6D152EA033CD3D009
:100970005DF8040B704700BF8446104662468C4603
:100980001946634600E000BF01B5FFF7B7FF002836
:1009900048BF10F1000F01BD4DF808EDFFF7F4FF5F
:1009A0000CBF012000205DF808FB00BF4DF808EDEA
:1009B000FFF7EAFF34BF012000205DF808FB00BF0D
:1009C0004DF808EDFFF7E0FF94BF012000205DF82F
:1009D00008FB00BF4DF808EDFFF7CEFF94BF0120E4
:1009E00000205DF808FB00BF4DF808EDFFF7C4FFDD
:1009F00034BF012000205DF808FB00BF4FEA410C26
:100A00007FEA6C5C02D150EA013C0AD14FEA430C08
:100A10007FEA6C5C02D152EA033C02D14FF0000045
:100A200070474FF0010070474FEA410212F5001283
:100A300015D211D56FF47873B3EB625212D94FEA25
:100A4000C12343F0004343EA505311F0004F23FA0F
:100A500002F018BF404270474FF00000704750EA64
:100A6000013005D111F0004008BF6FF00040704721
:100A70004FF00000704700BF4FEA4102B2F1E0437F
:100A800024BFB3F5001CDCF1FE5C0DD901F0004C75
:100A90004FEAC0024CEA5070B2F1004F40EB8300C5
:100AA00008BF20F00100704711F0804F21D113F1F1
:100AB0003872BCBF01F00040704741F480114FEA2A
:100AC0005252C2F11802C2F1200C10FA0CF320FAB3
:100AD00002F018BF40F001004FEAC1234FEAD323D0
:100AE00003FA0CFC40EA0C0023FA02F34FEA43033A
:100AF000CCE77FEA625307D150EA01331EBF4FF0C3
:100B0000FE4040F44000704701F0004040F0FE40DD
:100B100040F40000704700BF80F0004002E000BFDA
:100B200081F0004142001FBF5FEA410392EA030FD8
:100B30007FEA226C7FEA236C6AD04FEA1262D2EB22
:100B40001363C1BFD218414048404140B8BF5B4227
:100B5000192B88BF704710F0004F40F4000020F0C0
:100B60007F4018BF404211F0004F41F4000121F0D6
:100B70007F4118BF494292EA030F3FD0A2F1010220
:100B800041FA03FC10EB0C00C3F1200301FA03F15E
:100B900000F0004302D5494260EB4000B0F5000F81
:100BA00013D3B0F1807F06D340084FEA310102F140
:100BB0000102FE2A51D2B1F1004F40EBC25008BFF2
:100BC00020F0010040EA03007047490040EB0000BC
:100BD000013A28BFB0F5000FEDD2B0FA80FCACF1BD
:100BE000080CB2EB0C0200FA0CF0AABF00EBC250EA
:100BF00052421843BCBFD0401843704792F0000FD8
:100C000081F4000106BF80F400000132013BB5E72A
:100C10004FEA41037FEA226C18BF7FEA236C21D0A0
:100C200092EA030F04D092F0000F08BF0846704705
:100C300090EA010F1CBF0020704712F07F4F04D1D3
:100C4000400028BF40F00040704712F100723CBFE6
:100C500000F50000704700F0004343F0FE4040F410
:100C6000000070477FEA226216BF08467FEA2363CE
:100C70000146420206BF5FEA412390EA010F40F4B9
:100C8000800070474FF0000304E000BF10F0004305
:100C900048BF40425FEA000C08BF704743F09643EC
:100CA00001464FF000001CE050EA010208BF704707
:100CB0004FF000030AE000BF50EA010208BF70478E
:100CC00011F0004302D5404261EB41015FEA010CA3
:100CD00002BF84460146002043F0B64308BFA3F19B
:100CE0008053A3F50003BCFA8CF2083AA3EBC2537D
:100CF00010DB01FA02FC634400FA02FCC2F120029C
:100D0000BCF1004F20FA02F243EB020008BF20F0D2
:100D10000100704702F1200201FA02FCC2F1200238
:100D200050EA4C0021FA02F243EB020008BF20EA2D
:100D3000DC7070474FF0FF0C1CEAD0521EBF1CEA5B
:100D4000D15392EA0C0F93EA0C0F6FD01A4480EA49
:100D5000010C400218BF5FEA41211ED04FF0006332
:100D600043EA501043EA5111A0FB01310CF000405E
:100D7000B1F5000F3EBF490041EAD3715B0040EA84
:100D8000010062F17F02FD2A1DD8B3F1004F40EB54
:100D9000C25008BF20F00100704790F0000F0CF027
:100DA000004C08BF49024CEA502040EA51207F3AEB
:100DB000C2BFD2F1FF0340EAC250704740F40000C6
:100DC0004FF00003013A5DDC12F1190FDCBF00F0B7
:100DD00000407047C2F10002410021FA02F1C2F165
:100DE000200200FA02FC5FEA310040F1000053EA01
:100DF0004C0308BF20EADC70704792F0000F00F04F
:100E0000004C02BF400010F4000F013AF9D040EA54
:100E10000C0093F0000F01F0004C02BF490011F4E8
:100E2000000F013BF9D041EA0C018FE70CEAD153E6
:100E300092EA0C0F18BF93EA0C0F0AD030F0004C66
:100E400018BF31F0004CD8D180EA010000F000401A
:100E5000704790F0000F17BF90F0004F084691F0D8
:100E6000000F91F0004F14D092EA0C0F01D1420212
:100E70000FD193EA0C0F03D14B0218BF084608D1DB
:100E800080EA010000F0004040F0FE4040F4000025
:100E9000704740F0FE4040F4400070474FF0FF0CB8
:100EA0001CEAD0521EBF1CEAD15392EA0C0F93EAFF
:100EB0000C0F69D0A2EB030280EA010C49024FEA51
:100EC000402037D04FF0805343EA111143EA10130A
:100ED0000CF000408B4238BF5B0042F17D024FF4C2
:100EE000000C8B4224BF5B1A40EA0C00B3EB510F9D
:100EF00024BFA3EB510340EA5C00B3EB910F24BF86
:100F0000A3EB910340EA9C00B3EBD10F24BFA3EB0A
:100F1000D10340EADC001B0118BF5FEA1C1CE0D1D2
:100F2000FD2A3FF650AF8B4240EBC25008BF20F085
:100F3000010070470CF0004C4CEA50207F32C2BFD9
:100F4000D2F1FF0340EAC250704740F400004FF076
:100F50000003013A37E792F0000F00F0004C02BFA7
:100F6000400010F4000F013AF9D040EA0C0093F071
:100F7000000F01F0004C02BF490011F4000F013BCB
:100F8000F9D041EA0C0195E70CEAD15392EA0C0F33
:100F900008D142027FF47DAF93EA0C0F7FF470AF6B
:100FA000084676E793EA0C0F04D14B023FF44CAFAE
:100FB00008466EE730F0004C18BF31F0004CCAD143
:100FC00030F000427FF45CAF31F000437FF43CAF7F
:100FD0005FE700BF4FF0FF3C06E000BF4FF0010CA1
:100FE00002E000BF4FF0010C4DF804CD4FEA400283
:100FF0004FEA41037FEA226C18BF7FEA236C11D0CD
:1010000001B052EA530C18BF90EA010F58BFB2EB7F
:10101000030088BFC81738BF6FEAE17018BF40F0FF
:10102000010070477FEA226C02D15FEA402C05D1B3
:101030007FEA236CE4D15FEA412CE1D05DF8040B38
:10104000704700BF844608466146FFE70FB5FFF7CB
:10105000C9FF002848BF10F1000F0FBD4DF808ED83
:10106000FFF7F4FF0CBF012000205DF808FB00BF74
:101070004DF808EDFFF7EAFF34BF012000205DF8CE
:1010800008FB00BF4DF808EDFFF7E0FF94BF01201B
:1010900000205DF808FB00BF4DF808EDFFF7D2FF18
:1010A00094BF012000205DF808FB00BF4DF808ED5B
:1010B000FFF7C8FF34BF012000205DF808FB00BF28
:1010C0004FEA4002B2F1FE4F0FD34FF09E03B3EB55
:1010D00012620DD94FEA002343F0004310F0004F95
:1010E00023FA02F018BF404270474FF000007047EB
:1010F00012F1610F01D1420205D110F0004008BF8A
:101100006FF0004070474FF00000704742000ED271
:10111000B2F1FE4F0BD34FF09E03B3EB126209D432
:101120004FEA002343F0004323FA02F070474FF0E8
:101130000000704712F1610F01D1420202D14FF05D
:10114000FF3070474FF00000704700BF7BB972B9A5
:101150000029BEBF00204FF0004106E008BF002874
:101160001CBF6FF000414FF0FF3000F09BB9ADF1B4
:10117000080C6DE904CE002909DB002B1ADB00F016
:1011800035F8DDF804E0DDE9022304B070474042A1
:1011900061EB4101002B1BDB00F028F8DDF804E0D7
:1011A000DDE9022304B0404261EB4101524263EBAE
:1011B00043037047524263EB430300F017F8DDF836
:1011C00004E0DDE9022304B0404261EB41017047D5
:1011D000524263EB430300F009F8DDF804E0DDE977
:1011E000022304B0524263EB430370472DE9F047FA
:1011F000089D0C46002B4ED194468C458646B2FA8B
:1012000082F262D94AB1C2F12003914020FA03F37D
:101210000CFA02FC194300FA02FE4FEA1C47B1FB2C
:10122000F7F407FB14111FFA8CF64FEA1E4343EA4A
:10123000014304FB06F199420AD91CEB030304F1B4
:10124000FF3080F01081994240F20D81023C6344EE
:10125000591AB1FBF7F007FB101100FB06F61FFA55
:101260008EF343EA01439E420AD91CEB030300F1CB
:10127000FF3180F0FA809E4240F2F78063440238EA
:1012800000219B1B40EA04401DB1D3400022C5E968
:101290000032BDE8F0878B4205D90DB1C5E90001E8
:1012A00000210846F5E7B3FA83F1002946D1A342AD
:1012B00002D39042C0F0EE80861A64EB0303012053
:1012C000002DE6D0C5E90063E3E7002A40F08F80F7
:1012D000A1EB0C0401214FEA1C481FFA8CF7B4FB68
:1012E000F8F608FB164407FB06F04FEA1E4343EAF4
:1012F0000443984208D91CEB030306F1FF3402D2E1
:10130000984200F2CB8026461C1AB4FBF8F008FB8A
:10131000104400FB07F71FFA8EF343EA04439F4291
:1013200008D91CEB030300F1FF3402D29F4200F204
:10133000AE802046DB1B40EA0640A5E7C1F120074E
:101340008B4022FA07FC4CEA030C24FA07F64FEA1A
:101350001C49B6FBF9F81FFA8CFE09FB186620FA47
:1013600007F38C4000FA01FA08FB0EF01C43230C33
:1013700043EA0643984202FA01F20AD91CEB03033E
:1013800008F1FF3680F0818098427ED9A8F10208EA
:1013900063441E1AB6FBF9F309FB136603FB0EFE4A
:1013A000A4B244EA0644A64508D91CEB040403F1A0
:1013B000FF3066D2A64564D9023B644443EA084044
:1013C000A0FB0283A4EB0E049C42C6461E4650D3EB
:1013D0004DD055B1BAEB0E0364EB060404FA07F7DF
:1013E000CB401F43CC40C5E90074002151E70CFA03
:1013F00002FCC2F12003D9404FEA1C4820FA03F353
:1014000000FA02FEB1FBF8F008FB101194401C43F7
:101410001FFA8CF7230C43EA014300FB07F19942C2
:1014200008D91CEB030300F1FF362CD299422AD9CC
:10143000023863445B1AB3FBF8F108FB1133A4B222
:1014400044EA034401FB07F3A34208D91CEB04045C
:1014500001F1FF3613D2A34211D902396444E41AD0
:1014600041EA00413BE70446F2E6084608E7C24588
:10147000AFD2B8EB020E63EB0C060138A9E7314698
:10148000EDE703469AE73046D4E7B04681E7634488
:1014900002384FE706462346084611E7023E6344FA
:1014A00032E700BF704700BF024610B528B9BDE85B
:1014B00010401021074802F0BFB8074C23680133E1
:1014C0008342236005D11021024802F0BAF80023BC
:1014D000236010BD000801401C03002012281FB526
:1014E00028BF00200123019003910E4801A9029317
:1014F00001F0CCFC08B101F05BF80A4801F082FD74
:10150000C821084801F0F8FB064801F03DFD10F441
:10151000007003D0034801F0B5FC80B205B05DF85F
:1015200004FB00BF7007002008B507210620FFF765
:10153000D5FFFEF75FFF0AA3D3E90023FEF7C4FF40
:101540000022094BFEF7C0FF0022084BFEF7BCFF4C
:101550000022074BFEF7B8FFFFF766FA08BD00BF91
:101560006666666666660A400000264000005940CE
:101570000000303F4FF0E02210B50024D2F8FC3DCF
:1015800043F08073C2F8FC3D074B1A685C6042F080
:1015900001021A6002F006FA044BB0FBF3F0044BB0
:1015A0001860204610BD00BF001000E040420F0050
:1015B00024030020054B10B55C6802F0F3F94FF4EA
:1015C0007A73B0FBF3F0B4FBF0F010BD001000E054
:1015D00070B50446FFF7EEFF0026054602F0E2F97B
:1015E0004FF47A723346B0FBF2F200214FF0FF3035
:1015F000FFF7ACFD84428E41B8BF184B4FF47A76AA
:10160000BCBF1B78E41802F0CDF90023B0FBF6F262
:1016100000214FF0FF30FFF799FD2C44A04271F1FB
:1016200000010ADA02F0BEF90023B0FBF6F24FF037
:10163000FF310120FFF78AFD0444AC4204D9FFF7D3
:10164000B9FFA042FBD370BDFFF7B4FFA042FBD8A7
:10165000FFF7B0FFA042FBD3F5E700BF1C0000205E
:1016600008B54FF0E0231A6922F004021A611A69E2
:1016700022F002021A6102F095F9074BB0FBF3F079
:10168000064B80B21880C0EB401300EB8300044B84
:10169000C000188008BD00BF00127A00220300209D
:1016A00020030020704700000B4B00221B8858438A
:1016B0004FF0E02358619A611A6942F001021A6101
:1016C0001A6902F00112012AFAD01A6922F0010205
:1016D0001A6100229A6170472003002003280BD072
:1016E00004284FF000030DD002280DD14FF08042A6
:1016F000506A536200B270470022044B586A5A6223
:1017000000B27047024AF3E71846704700040040F1
:101710000008004038B51C4C4FF400716368204647
:1017200023F0F00363606368012243F030036360D9
:1017300001F082FF4FF40071204601F077FF08B9F5
:10174000002038BD01224FF48071204601F074FF63
:101750000120FFF7A7FF00224FF40071204601F09F
:101760006BFF4FF40071204601F060FF0546002832
:10177000E6D10120FFF796FF20462A464FF48071FC
:1017800001F05AFF0120DCE7000C014010B5144CB9
:1017900000226368204623F0F003636063684FF41F
:1017A000807143F03003636001F046FF00224FF484
:1017B0000071204601F040FF0120FFF773FF204633
:1017C00001224FF4807101F037FF204601224FF4CF
:1017D000007101F031FFBDE810400120FFF762BF4A
:1017E000000C014010B51B4C012263684FF40071DE
:1017F00023F0F00363606368204643F08003636076
:1018000001F01AFF0120FFF74DFF204601224FF49F
:10181000807101F011FF0120FFF744FF33244FF4E2
:1018200000710C4801F002FF024630B909484FF43C
:10183000807101F001FF012006E0013C14F0FF047B
:1018400003D1FFF7A3FF204610BD0120FFF72AFFB9
:10185000E5E700BF000C014010B5144C0022204603
:101860004FF4807101F0E8FE6368002223F0F0037A
:10187000636063684FF4007143F030036360204697
:1018800001F0DAFE0120FFF70DFF01224FF4807115
:10189000204601F0D1FE0120FFF704FF2046BDE8FD
:1018A000104000224FF4807101F0C6BE000C0140D0
:1018B00010B5144C002220464FF4807101F0BCFE9C
:1018C0006368012223F0F003636063684FF40071E2
:1018D00043F030036360204601F0AEFE0120FFF7C5
:1018E000E1FE01224FF48071204601F0A5FE0120A7
:1018F000FFF7D8FE2046BDE8104000224FF480716B
:1019000001F09ABE000C014070B51B4C054663689F
:10191000002223F0F003636063684FF4807143F0AA
:1019200030032046636001F087FE08262B064CBF7B
:10193000012200224FF40071204601F07DFE0120BB
:10194000FFF7B0FE01224FF48071204601F074FED3
:101950000120FFF7A7FE00224FF48071204601F01E
:101960006BFE013E0120FFF79DFE6D0016F0FF06A5
:10197000EDB2DBD170BD00BF000C0140F8B50446EC
:101980000F4615461E46FFF7C5FE48B1600000F041
:10199000FE00FFF7B9FFFFF725FF18B9FFF7F6FEC6
:1019A000012010E03846FFF7AFFF0024FFF71AFFD1
:1019B000A54205DD305DFFF7A7FFFFF713FF18B95C
:1019C000FFF7E4FE0020F8BD0134F1E7F8B5074663
:1019D00008260024184D6B6823F0F0036B606B68D9
:1019E00043F080036B6000224FF48071284601F0C1
:1019F00023FE0220FFF756FE4FF480712846012295
:101A000001F01AFE64004FF400712846E4B201F0C0
:101A10000DFE08B10134E4B20220013EFFF742FEA0
:101A200016F0FF06DFD11FB1FFF716FF2046F8BD05
:101A3000FFF73EFFFAE700BF000C0140F8B505468E
:101A40000F4614461E46FFF765FE48B16D00EDB225
:101A50002846FFF759FFFFF7C5FE18B9FFF796FEB6
:101A60000120F8BD3846FFF74FFFFFF7BBFEFFF739
:101A700051FE681CC0B2FFF747FFFFF7B3FE1CB969
:101A8000FFF784FE2046ECE7012C0CBF002001206C
:101A9000FFF79CFF013C06F8010BE4B2EFE738B515
:101AA00004460D46FFF736FE2046FFF72DFFFFF7F1
:101AB00099FE2846FFF728FFFFF794FEFFF72AFE5E
:101AC000601CC0B2FFF720FFFFF78CFE0020FFF77D
:101AD0007DFF0446FFF75AFE204638BDF8B507469D
:101AE0000E4615461C46FFF715FE3846FFF70CFF5D
:101AF000FFF778FE3046FFF707FFFFF773FE254438
:101B0000AC4203D1FFF742FE0120F8BD14F8010BEF
:101B1000FFF7FAFEFFF766FEF2E710B51446FFF78F
:101B2000BEFF2070012010BD07B58DF807200DF114
:101B300007030122FFF7D2FF03B05DF804FB2DE994
:101B4000F0411C4690469DF8185006460F46FFF798
:101B5000A6FFC4F108039D40EDB2C8F107031D4183
:101B6000FF23A4EB0804073408F1010843FA04F446
:101B700003FA08F31C4300EA04022A4339463046BC
:101B8000BDE8F041D2B2FFF7CFBF2DE9F341904657
:101B90001F4601240DF1070205460E4604FA08F41B
:101BA000FFF7BBFF9DF8072047B12243D2B2314671
:101BB000284602B0BDE8F041FFF7B6BF22EA0402B2
:101BC000F5E700002DE9F04120210546274801F006
:101BD0002DFD274E20BB338801339BB220212348A3
:101BE000338001F023FD234F3B781843C0B208B97E
:101BF00001233B70DFF88080204C98F800308BB9CF
:101C00003A78012A01BF237888F800200133237035
:101C10002078022806D10023194A2370138010E08F
:101C20000023DBE72021114801F000FD012808BF57
:101C30000023207804BF3B7088F80030012802D0D0
:101C40000020BDE8F0810E4A3188138801339BB231
:101C5000AB42138004D98D4202D900232370DDE703
:101C60008D42EDD2002323701380E9E70008014084
:101C700032030020300300202F0300202E03002019
:101C80002C03002038B50F4C0F4D238833B10023AF
:101C90002B802388012B12D000200FE020210B483D
:101CA00001F0C4FC02460028F1D12B8801339BB21D
:101CB000C82B2B80EDD901202A80208038BD00233D
:101CC0002380E9E72A0300202803002000080140C0
:101CD00070B50A46044601B101224FF40041124892
:101CE00001F0AAFC0825114E002220210F4801F026
:101CF000A3FC23064CBF012200221021304601F034
:101D00009BFC013D01222021304601F095FC64003E
:101D100015F0FF05E4B2E7D1BDE8704001224FF4B1
:101D20000041014801F088BC00080140000C01405E
:101D300070B5B0240E4E00212046FFF7C9FF0021E8
:101D40000846FFF7C5FF00211020FFF7C1FF00255F
:101D500016F8350001210135FFF7BAFF802DF7D1C4
:101D60000134E4B2B82C06F10106E4D170BD00BF25
:101D700034030020002310B41C4607480022191821
:101D800001F832400132802AFAD10133082BF5D113
:101D900010BCFFF7CDBF00BF34030020030610B511
:101DA00012D43F2910D8012401F00703C3F107031F
:101DB0009C40C908064BC1F10701C9B203EBC00042
:101DC000435C12B12343435410BD23EA0403FAE7F2
:101DD000340300202DE9F74F88460C218146444604
:101DE00000261F46203A1C4BD2B203EB021300938D
:101DF0001A4B9DF830B001FB02330193B74202D178
:101E000003B0BDE8F08F0C2F21D1019B9D5D04F143
:101E100008035FFA83FA2B0658BFBBFA8BF2214600
:101E200004F101044CBF5A4652094846E4B2FFF798
:101E3000B5FFA4EB08026D00BA42EDB209D1C2466B
:101E400009F101005FFA80F954460136D6E7009B9C
:101E5000DCE7A245DFD1F7E748B1000838B7000852
:101E60002DE9F04F00258046AA464FF00A094FF0B1
:101E7000010B87B09DF8406005925F1E72080391C8
:101E80000492FCB2FF2C27D107B0BDE8F08F09FB0C
:101E900003F3013AD2B2FF2AF9D1059AB2FBF3F368
:101EA000B3FBF9F209FB1233DAB2BAF1000F18D121
:101EB000AF4216DD9BB933462022CDF800B0404634
:101EC0000399FFF787FF049B013C03EB08000135F2
:101ED0005FFA80F8E4B2D5E722460123D9E74FF054
:101EE000010A30323346CDF800B0D2B2E7E7F7B599
:101EF00004460D460127561E16F8013F0BB903B0E4
:101F0000F0BD7A2C82BF1035EDB200243A2D03D9F2
:101F10000025FFF72FFF2C46009720460C2329466B
:101F200032780834FFF756FFE4B2E5E710B53B4CD2
:101F300000220821204601F07FFB6420FFF748FBC8
:101F400001222046082101F077FB0021AE20FFF797
:101F5000BFFE0021D520FFF7BBFE00215020FFF778
:101F6000B7FE0021A820FFF7B3FE00213F20FFF7B6
:101F7000AFFE0021D320FFF7ABFE00210846FFF79C
:101F8000A7FE00214020FFF7A3FE00218D20FFF7D0
:101F90009FFE00211420FFF79BFE00212020FFF769
:101FA00097FE00210220FFF793FE0021A120FFF7FA
:101FB0008FFE0021C020FFF78BFE0021DA20FFF703
:101FC00087FE00211220FFF783FE00218120FFF70A
:101FD0007FFE0021EF20FFF77BFE0021D920FFF7D5
:101FE00077FE0021F120FFF773FE0021DB20FFF7D1
:101FF0006FFE00213020FFF76BFE0021A420FFF7C9
:1020000067FE0021A620FFF763FE0021AF20FFF747
:102010005FFEBDE81040FFF7ADBE00BF000C014001
:102020002DE9F04F894B87B0834240F00C81884BFB
:10203000884A1B78884F592B137018D10221874A80
:102040001170A3F14602022A8CBF00220122002156
:102050000020834C7B2B2070824C207082480270C1
:10206000824A117040F0DA8001223A7039E0582B30
:1020700002D10121794AE3E70A2B0FDD5A2B00F048
:10208000D280412B00F0DA80452B00F0D980A3F1FB
:102090004202022AD5D800220121D9E721D0012607
:1020A0006E4A6F4D6F4C7048704916702BB9002204
:1020B0002A70227002700A7013E0012B4FF00002A8
:1020C00001D12B70F5E7052B02D12A702670F1E7BC
:1020D000A3F1020CBCF1020F14D82A702270027016
:1020E0000E703A78012A14D1614962480A78835403
:1020F00001320A7001225649544807B0BDE8F04F3A
:1021000002F0BDBE092BD2D0227001242A700470C7
:10211000D1E7022AEED1DFF85C81DFF8549198F81C
:102120000330554C502B0FD10122544B1A70002113
:10213000534B3222197000234E48397089F8001031
:10214000236006F0B1FED5E798F80160232EEED0AB
:1021500099F800A0DFF828B15546032D8BF8005000
:1021600009D8303E082EE2D8DFE806F033373A3D92
:102170004043464C520008EB050313F8010C30387D
:10218000FEF738F9CDE90001AAEB0500FEF732F9B8
:1021900002460B4600203B4907F046FC02460B4630
:1021A0002068CDE90423FEF737F9DDE90423CDE902
:1021B0000201DDE90001FEF787F902460B46DDE981
:1021C0000201FDF7CBFFFEF757FC013D2060EDB2A9
:1021D000C3E722682C4B1A60A9E722682B4BFAE769
:1021E00022682B4BF7E722682A4BF4E722682A4B38
:1021F000F1E72268294BEEE72068FEF761FF284BE4
:10220000586194E72068FEF75BFF254B18628EE764
:102210002068FEF755FF224BD86288E77D2B7FF4BC
:1022200060AF022221E7002200210D4802700D4A12
:10223000117000220C490A700C493CE70122F3E7B7
:1022400000220121F1E707B0BDE8F08F040900206A
:102250006E0700206D0700206C070020150000208D
:10226000D8070020D7070020D6070020D507002078
:102270006B0700203907002034070020B607002034
:102280003807002000002440100000200C0000202F
:10229000080000200400002000000020A00700200B
:1022A000540000201FB51148114A00230124026088
:1022B0004FF46022CDE90133039383600373037508
:1022C000C2614360046100F025FF08B100F070F9BD
:1022D0000623CDE901340023044801A9039300F04B
:1022E000D5FD08B100F064F904B010BD70070020FE
:1022F0000024014010B5044686B01022002102A837
:1023000006F0D2FD2268104B9A421BD103F56C43B4
:102310009A690E4842F400729A619A6902A902F41D
:1023200000720092009A9A6942F004029A619B69D5
:10233000402203F004030193019B0323CDE9022310
:1023400001F09CF806B010BD0024014000080140D7
:1023500010222DE9F04188B00DEB0200002106F0BB
:10236000A3FD384B384D9A69384E42F020029A61ED
:102370009A69284602F020020192019A9A6948F26D
:10238000100142F004029A619A69012402F00402E9
:102390000292029A9A69002742F008029A619B69A8
:1023A000012203F008030393039B01F045F9304633
:1023B000012247F23A3101F03FF9002230464FF452
:1023C000004101F039F94FF0030848F210032846A4
:1023D00004A9CDE90434CDE9067801F04FF82023B3
:1023E000284604A9CDE90437069401F047F847F2DE
:1023F0003A33304604A9CDE90434CDE9067801F03A
:102400003DF84FF4004306970227304604A9CDE972
:102410000434079701F032F84FF480520C4B2846F1
:1024200004A9CDE90423069401F028F82246394690
:10243000282000F06FFF282000F09CFF08B0BDE8C6
:10244000F08100BF0010024000080140000C014074
:102450000000111010B594B0142200210CA806F051
:1024600023FD142200210DEB020006F01DFD1022B9
:10247000002101A806F018FD02244FF48033012248
:10248000CDE91143CDE90A234FF4E0130AA80E92D7
:10249000139301F0EBF808B172B6FEE70F23CDE914
:1024A00005344FF480630790CDE90830214605A834
:1024B00001F0B2FA08B172B6FEE74FF4004301A88A
:1024C0000194039301F064FB08B172B6FEE714B007
:1024D00010BD000008B500F0F1FBFFF7BBFFFFF7F0
:1024E00037FFFFF7DFFE00F0B9FA00F04FF900F018
:1024F0007DF900F0C7F900F00DFB00F027FB282064
:1025000000F046FFFFF7ACF81F4800F081FE002105
:102510001E4802F011F90C211C4802F00DF93C2173
:102520001B4801F0C0FC3C211A4801F0BCFC08210A
:10253000194802F003F9184801F08AFCFFF7F6FC8D
:1025400003F024F803F038F8144800F033F80122BF
:102550001349124802F093FC282000F00BFF114DA4
:10256000114C2B7863B906F0DFF805F08FFE0123DC
:10257000002223700D4B1A702378002BFCD1F0E75A
:1025800006F08AF9F3E700BF70070020BC080020BE
:1025900074080020E40700202C0800200409002013
:1025A0006E070020D4070020B4070020B5070020E4
:1025B00072B6FEE7044B02221860044B1868002331
:1025C0008068194606F0D4BADC070020A00200207B
:1025D000022808B505D906F0B5FC092303600020E0
:1025E00008BD0120FCE700000138012870B50D4648
:1025F000144618D80F4B1E6801F0D4F94FF47A72C4
:102600000023B0FBF2F200214FF0FF30FEF79EFDF9
:10261000A2B203462946304602F00AFA002818BF43
:102620000524204670BD06F08DFC09234FF0FF34D1
:102630000360F6E7DC070020022808B506D906F09B
:1026400081FC092303604FF0FF3008BD0020FCE748
:1026500008B506F077FC092303604FF0FF3008BD92
:1026600070B50D460446C0B90F4B1E6801F09AF9CB
:102670004FF47A722346B0FBF2F200214FF0FF30A4
:10268000FEF764FD012203462946304602F025FA92
:10269000002814BF0520012070BD06F053FC09235B
:1026A00003604FF0FF30F7E7DC070020022808B591
:1026B00004D84FF400534B60002008BD06F042FCE4
:1026C00009230360F8E70000104B07B59A6905205D
:1026D00042F001029A619A6902F001020092009AA6
:1026E000DA6942F08052DA61DB6903F080530193CA
:1026F000019B00F0FDFD064A536823F0E06343F0C0
:102700000073536003B05DF804FB00BF001002408B
:1027100000000140FEE7FEE7FEE7FEE7FEE7704748
:102720007047704700F0DCBA014801F02EBC00BFD2
:102730002C080020014802F089BA00BF04090020DB
:102740004FF4805000F086BF0B4A0346116810B565
:1027500009B90A491160106809490A4C0344091B68
:102760008B4206D906F0EEFB0C2303604FF0FF30DE
:1027700010BD1360FCE700BFE0070020E80B00205D
:1027800000500020000400007047000010B58CB01D
:102790001C22002104A806F087FB00244FF0804390
:1027A00011480122C0E900344FF6FF73C0E9033439
:1027B000032303930A2303A9CDE9014484608461C0
:1027C0000592079309920B9301F03EFD08B1FFF7C4
:1027D000EFFE054801A9CDE9014402F01BF808B15C
:1027E000FFF7E6FE0CB010BD7408002010B5002401
:1027F0008AB01022002102A806F056FB10222146C2
:1028000006A8CDE9004406F04FFB47231B481C4AAD
:102810008460C0E900234FF6FF738461C0E903348C
:1028200001F08EFC08B1FFF7C3FE4FF4805313484C
:1028300002A9029301F092FE08B1FFF7B9FE0F481A
:1028400001F0D6FC08B1FFF7B3FE002469460B483F
:10285000CDE9004401F0DEFF08B1FFF7A9FE012336
:102860000822064806A9CDE907340694099401F028
:10287000EDFD08B1FFF79CFE0AB010BD2C0800204A
:102880000004004010B500248CB02022002104A8D0
:1028900006F00AFB1148124B0A22C0E900344FF639
:1028A000FF73C0E9033403230393012303A9CDE994
:1028B00001448460846105930792099301F0C4FC8C
:1028C00008B1FFF775FE054801A9CDE9014401F003
:1028D000A1FF08B1FFF76CFE0CB010BDE4070020AB
:1028E000000800400268084B82B09A420AD103F502
:1028F00064439A6942F400629A619B6903F400633D
:102900000193019B02B07047002C0140102210B5CA
:10291000044688B000210DEB020006F0C5FA2368DA
:10292000B3F1804F1BD103F50433DA69194842F043
:102930000102DA61DA6904A902F001020092009A48
:102940009A6942F004029A619B6903F004030193BF
:10295000019B0323049300F091FD08B010BD0E4AC3
:102960009342FAD10D4B0E48DA6904A942F00402F1
:10297000DA61DA6902F004020292029A9A6942F07C
:1029800008029A619B6903F008030393039BC02329
:102990000493E0E7000801400008004000100240F6
:1029A000000C014010B5044686B01022002102A898
:1029B00006F07AFA2268134B9A4221D1012403F5DA
:1029C0000333DA69104842F00202DA61DA6902A9D7
:1029D00002F002020092009A9A6942F008029A619B
:1029E0009B69029403F008030193019B00F046FDEC
:1029F0001D202246214600F08DFC1D2000F0BAFC6F
:102A000006B010BD00040040000C014010B50446A3
:102A100086B01022002102A806F046FA22680D4B6B
:102A20009A4214D103F564439A690B4842F00402B8
:102A30009A619B694FF4106203F004030193019BB8
:102A4000022302A9CDE90223059300F017FD06B089
:102A500010BD00BF002C01400008014010B500244B
:102A600092B01C22214603A8CDE9014406F01CFACD
:102A7000202221460AA806F017FA2448244BC0E970
:102A80000544C0E9003441F61F438460C0E90334C3
:102A900001F082FB08B1FFF78BFD1C4801A9CDE9CD
:102AA000014401F0B7FE08B1FFF782FD0022602368
:102AB000164803A9CDE90332CDE90522CDE9072265
:102AC000099201F041FC08B1FFF772FD0C220F489A
:102AD0000DEB020101F038FC08B1FFF769FD00239E
:102AE0004FF4005209480AA9CDE90A33CDE90C3365
:102AF0000E930F92119301F0BBFE08B1FFF758FD42
:102B00000248FFF783FF12B010BD00BFBC080020D1
:102B1000002C014008B54FF4E1330A480A4AC0E9E5
:102B2000002300230C22C0E90233C0E9052303611E
:102B3000C36101F04FFF18B1BDE80840FFF738BD91
:102B400008BD00BF480900200038014008B54FF417
:102B500016530A480A4AC0E9002300230C22C0E9A0
:102B60000233C0E905230361C36101F033FF18B1EB
:102B7000BDE80840FFF71CBD08BD00BF04090020E8
:102B800000480040102210B5044688B00DEB02004A
:102B9000002106F089F92368304A934229D1304B4D
:102BA0004FF400709A6904A942F480429A619A69CC
:102BB0004FF4806402F480420092009A9A6942F0D5
:102BC00004029A619B6903F004030193019B0223B1
:102BD000CDE9040303232348079300F04FFC0023AF
:102BE000204804A9CDE90443069300F047FC08B04F
:102BF00010BD1D4A9342FAD1194B04A9DA691B484A
:102C000042F48022DA61DA6902F480220292029AA6
:102C10009A6942F008029A619B694FF4806203F05E
:102C200008030393039B0223CDE9042303230793A3
:102C300000F024FC00234FF400610C48CDE904139C
:102C400004A9069300F01AFC01222720114600F087
:102C500061FB272000F08EFBC9E700BF0038014070
:102C6000001002400008014000480040000C0140F4
:102C70000C480D490D4A002302E0D458C4500433D7
:102C8000C4188C42F9D30A4A0A4C002301E01360AD
:102C90000432A242FBD3FFF777FD06F059F9FFF7A4
:102CA00019FC70470000002000030020A8CB00089A
:102CB00000030020E40B0020FEE70000074A08B5EF
:102CC0001368032043F01003136000F011FB002091
:102CD000FEF750FCFFF7F8FC002008BD0020024082
:102CE000034A044B11681B780B441360704700BF04
:102CF0008C0900201C0000202DE9F7430026044623
:102D00000D460196FEF756FC236807469A68D005E3
:102D100009D50120A36A84F8246043F02003A3624C
:102D200003B0BDE8F0835A68D10549D4DB6A13F4D7
:102D3000700F45D14FF47A7823681E6816F00206AA
:102D40001CD06FF0120322681360A36A43F400736F
:102D5000A362936803F46023B3F5602F0CD1237B47
:102D600053B9A36A23F48073A362A36ADB0403D478
:102D7000A36A43F00103A3620020D1E700F012FE32
:102D80003346B0FBF8F200214FF0FF30FEF7DEF9DA
:102D90008E4208BF8542CFD065B923681B689A0769
:102DA000CAD4A36A032043F00403A362002384F877
:102DB0002430B5E7FEF7FEFBC01BA842EDD8BBE709
:102DC0002A4B02201E6800F05DFF2368284A19691B
:102DD000B6FBF0F61142274A2AD1D86826490842A4
:102DE00026D11969114234D1DA68244B1A4214BF32
:102DF000292314234FF000084FF47A795E43019B96
:102E0000B3429ED200F0CEFD0023B0FBF9F20021C8
:102E10004FF0FF30FEF79AF9884508BF854203D08E
:102E2000EDB9019BB342BCD3019B01330193E6E7AB
:102E30001969114203D1D968104A11420BD019699E
:102E40000F4A114209D1DB68134214BFFC235423FB
:102E5000D0E72923CEE75423CCE7FC23CAE7FEF7CB
:102E6000A9FBC01BA842DCD8DEE700BF1800002089
:102E70002449922492244912244992009224490020
:102E8000499224000368D86C70470000002373B592
:102E9000019390F824300446012B6CD0012380F874
:102EA00024304D680268062D086805EB850322D89A
:102EB0001F26556B053B9E4025EA060500FA03F3E5
:102EC0002B43536309288B6800EB40054FF0070143
:102ED00029D9D6681E3DA94026EA0101AB400B4323
:102EE000D360A0F11003012B25D90020002384F822
:102EF000243002B070BD0C2D4FF01F0509D8166BA1
:102F0000233B9D4026EA050500FA03F32B43136398
:102F1000D8E7D66A413B9D4026EA050500FA03F34F
:102F20002B43D362CEE71069A94020EA0101AB40F0
:102F30000B431361D9E7114B9A4216D193681B02D8
:102F4000D3D49368102843F400039360CDD10C4B85
:102F50000C4A1B68B3FBF2F30A2253430193019B13
:102F6000002BC2D0019B013BF8E7A36A012043F08C
:102F70002003A362BAE70220BBE700BF00240140A0
:102F80001800002040420F00806A7047002337B5C8
:102F90000193036804469A68D20702D5002003B063
:102FA00030BD9A6842F001029A60144B144A1B68C3
:102FB000B3FBF2F30193019BE3B9FEF7FBFA05467D
:102FC00023689B68DB07E9D4FEF7F4FA401B02286C
:102FD000F6D923689B6813F00103F1D1A26A01209E
:102FE00042F01002A262E26A84F8243042F0010248
:102FF000E262D4E7019B013BDCE700BF1800002040
:1030000040420F0010B590F824300446012B54D0F4
:10301000012380F82430FFF7B9FF002849D1A36AC3
:10302000274A23F4407323F0010343F48073A3621F
:103030002368934204D123494A6812F4702F2ED199
:10304000A26A22F48012A2625A68520541BFA26AA3
:1030500022F4405242F48052A262A26A12F48052D8
:103060001CBFE26A22F00602E262002284F82420F9
:103070006FF002021A609A6802F46022B2F5602FC3
:1030800013D10F4A934205D1A2F58062526812F41F
:10309000702F0AD19A6842F4A0029A6010BDA26A09
:1030A00042F48012A2624A68CFE79A6842F4801222
:1030B000F3E7002384F82430F0E70220EEE700BFB6
:1030C000002801400024014038B5036804469A688E
:1030D000D10701D4002038BD9A6822F001029A601D
:1030E000FEF768FA054623689B68DB07F2D5FEF712
:1030F00061FA401B0228F6D923689B68DA07F2D5EB
:10310000A36A012043F01003A362E36A43F00103C2
:10311000E362E0E7F8B5044600286DD0836A23B97E
:10312000C36280F82430FFF7E5F82046FFF7CCFFB4
:10313000A36A13F0100361D100285FD1A26A61680D
:1031400022F4885222F0020242F00202E569A668E7
:10315000A262227B2943B6F5807F41EA420136D044
:10316000771E7D427D412D02277D012F06D182BB36
:10317000A269013A45EA423242F400652268B6F596
:10318000807F576827F4694745EA070555609768C7
:103190001D4D05EA070545EA0105956001D0012EA0
:1031A00002D12369013B1B05D56A25F470052B4329
:1031B000D3629268154B1340994213D10023E36206
:1031C000A36A23F0030343F00103A362F8BD35466D
:1031D000CAE7A26A42F02002A262E26A42F0010259
:1031E000E262CBE7A36A23F0120343F01003A36269
:1031F000E36A43F00103E3620120E7E7A36A43F0D7
:103200001003A362F8E700BFFDF7E1FFFE0E1FFF0A
:10321000002373B5019390F824300446012B62D04B
:10322000012380F82430FFF74FFF0546002832D1F4
:10323000A36A022023F4885323F0020343F002031D
:10324000A3622A4B1E6800F01DFDB6FBF0F6760067
:103250000196019B1BBB2046FFF798FE22689368EE
:1032600043F008039360FEF7A5F9064623689A68C1
:10327000110718D49A6842F004029A60FEF79AF98E
:10328000064623689B685B0723D4A36A23F00303E5
:1032900043F00103A362002384F8243016E0019B6D
:1032A000013B0193D5E7FEF785F9801B0A28DDD99C
:1032B00023689B681807D9D5A36A012523F0120358
:1032C00043F01003A362002384F82430284602B0A0
:1032D00070BDFEF76FF9801B0A28D2D923689B685E
:1032E0005A07CED5E8E70225F0E700BF1800002016
:1032F00007490302CA6803F4E06322F4E06212049F
:10330000120C134343F0BF6343F40033CB607047A8
:1033100000ED00E0154B30B5DC68C4F30224C4F1C5
:103320000703251D042B28BF0423062D4FF0FF356E
:1033300094BF0024033C05FA03F321EA0303A540EC
:1033400022EA0502A340002843EA0203ACBF00F1D1
:103350006040074A4FEA0313DBB2ABBF00F56140A0
:1033600000F00F0080F80033135430BD00ED00E092
:1033700014ED00E0002807DB01234109034A00F0B7
:103380001F00834042F82130704700BF00E100E099
:1033900000280CDB01220649430900F01F0082408F
:1033A000203341F82320BFF34F8FBFF36F8F704757
:1033B00000E100E090F821200346022A06D0042212
:1033C00082630120002283F8202070470268C06BCE
:1033D000116821F00E011160116821F001011160E6
:1033E00001211A6C01FA02F24260002083F82110D8
:1033F000E8E7000008B590F82130022B03D0042341
:103400008363012008BD03681A6822F00E021A6067
:103410001A6822F001021A60164A93421CD0143234
:1034200093421BD0143293421AD0143293421AD0D2
:10343000143293421AD01432934214BF4FF0807367
:103440004FF480130C4A53604FF480730384436B32
:1034500003B198470020D5E70123F3E71023F1E7F4
:103460004FF48073EEE74FF48053EBE74FF4803373
:10347000E8E700BF08000240000002402DE9F74FD6
:1034800000242646DFF888C1624BDFF88CE1DFF8C4
:103490008C810A6832FA06F502D103B0BDE8F08FDC
:1034A0000127B74002EA070537EA02027AD14A68E3
:1034B000032A07D8013A022A00F28380DFE802F0EB
:1034C00092979D00122A00F095806DD8112A00F085
:1034D0008B80FF2D98BF81464FF00F0B88BF00F106
:1034E00004094FEA8602D9F8007088BF203A0BFA27
:1034F00002FA27EA0A0704FA02F21743C9F8007031
:10350000D1F8049019F0805F4CD0DCF8182026F038
:10351000030742F00102CCF81820DCF8182007F16C
:10352000804702F00102019207F5803706F0030A96
:10353000019A4FEA8A0ABA680BFA0AFB22EA0B0BD5
:10354000374A90425DD002F5806290425BD002F52E
:103550008062904259D002F58062904214BF0422EA
:10356000032202FA0AF242EA0B02BA601A6819F45C
:10357000803F14BF2A43AA431A605A6819F4003FD7
:1035800014BF2A43AA435A609A6819F4801F14BFD3
:103590002A43AA439A60DA6819F4001F14BF2A4329
:1035A000AA43DA60013674E7DFF878904A4508D01C
:1035B00010D8A9F580194A4503D0724501D042457B
:1035C00087D18A68DAB1012A4FF008040CBF07617D
:1035D00047617EE7DFF850904A45F2D009F580391F
:1035E0004A45EDE7CC6874E7CC68043471E7CC68F1
:1035F00008346EE7CC680C346BE7002469E70424D8
:1036000067E70022ADE70122ABE70222A9E700BF8E
:1036100000100240000401400000211000001110C1
:103620000008014000002210000031108368194298
:1036300014BF0120002070470AB1016170470904DE
:10364000FBE7C36801EA030221EA030141EA024100
:1036500001617047044A08B55169014202D05061C6
:1036600002F0F2FE08BD00BF000401402DE9F34165
:10367000054638B30368DB0710D42B689F075ED478
:103680002B68190700F195802B685A0700F1C1805B
:10369000EB69002B40F02C81002029E0904C6368FE
:1036A00003F00C03042B07D0636803F00C03082B12
:1036B0000AD16368DE0307D523689C03DDD56B68F8
:1036C000002BDAD1012013E06B68B3F5803F12D1F3
:1036D000236843F480332360FDF76CFF06462368BC
:1036E0009803CAD4FDF766FF801B6428F7D903202E
:1036F00002B0BDE8F0819BB9236823F480332360D6
:10370000236823F480232360FDF754FF06462368D3
:103710009903B2D5FDF74EFF801B6428F7D9E6E781
:10372000B3F5A02F236803D143F480232360CFE7B0
:1037300023F480332360236823F48023CBE7684C91
:10374000636813F00C0F07D0636803F00C03082BB9
:1037500010D16368DA030DD423689B0702D52B6967
:10376000012BAFD123686A6923F0F80343EAC2034F
:10377000236085E72A695B4B6AB101221A60FDF775
:1037800019FF064623689F07ECD4FDF713FF801B43
:103790000228F7D9ABE71A60FDF70CFF064623684D
:1037A00098077FF56DAFFDF705FF801B0228F6D95E
:1037B0009DE7AA694A4E4B4BE2B10122C3F880242F
:1037C000FDF7F8FE0446736A9B070DD54FF4FA52D5
:1037D000454B1B68B3FBF2F3019300BF019B5A1EDC
:1037E0000192002BF9D14FE7FDF7E4FE001B022800
:1037F000E9D97CE7C3F88024FDF7DCFE0446736A50
:103800009F077FF541AFFDF7D5FE001B0228F6D9D3
:103810006DE7334CE369D80024D40127E36943F012
:103820008053E361E36903F080530093009B2F4EC4
:103830003368D90518D5EB68012B26D1236A43F0EC
:1038400001032362FDF7B6FE41F288380646236A7B
:103850009B073FD5002F3FF41BAFE36923F0805354
:10386000E36115E70027E2E7336843F480733360D0
:10387000FDF7A0FE80463368DA05DCD4FDF79AFE3A
:10388000A0EB08006428F6D931E7ABB9236A41F20E
:10389000883823F001032362236A23F004032362A0
:1038A000FDF788FE0646236A9807D3D5FDF782FE0A
:1038B000801B4045F7D91AE7052B236A03D143F053
:1038C00004032362BAE723F001032362236A23F08F
:1038D0000403B6E7FDF76EFE801B4045B7D906E747
:1038E000001002400000424218000020007000401A
:1038F0002A4C626802F00C02082A3ED00022022BF9
:10390000274B1A662CD1FDF755FE06462368990110
:1039100020D42B6AB3F5803F05D16268A96822F4F0
:1039200000320A436260696A62680B4322F47412CF
:103930001343012263601A4B1A66FDF73BFE0546EE
:1039400023689A013FF5A8AEFDF734FE401B02281C
:10395000F6D9CCE6FDF72EFE801B0228D6D9C6E6A6
:10396000FDF728FE054623689B017FF595AEFDF720
:1039700021FE401B0228F6D9B9E6012B3FF4A2AE86
:1039800060682B6A00F480329A427FF49BAE6B6AC7
:1039900000F47010C01A18BF0120A9E60010024000
:1039A0000000424230B5184B87B002AC03F110055D
:1039B000224618685968083303C2AB421446F7D14F
:1039C00040F201231149ADF804304B6803F00C02BA
:1039D000082A17D1C3F3834218326A44DB0312F872
:1039E000100C0CD54B680A4AC3F3404350431833BC
:1039F0006B4413F8143CB0FBF3F007B030BD054B3B
:103A00005843FAE70248F8E7C4BB00080010024038
:103A100000127A0000093D002DE9F0410D460446F0
:103A200010B90120BDE8F081444A136803F0070390
:103A30008B4228D321688E0730D4CA0743D43F4A2B
:103A4000136803F00703AB4265D822683C4D12F0BF
:103A5000040F6CD1130706D56B68226923F46053F9
:103A600043EAC2036B60FFF79DFF6B68354AC3F3FF
:103A70000313D35CD840344B1860344B1868FDF7FF
:103A800079FD0020CEE7136823F007030B43136092
:103A9000136803F007038B42C3D1CBE7284B11F027
:103AA000040F1EBF5A6842F4E0625A60080742BF22
:103AB0005A6842F460525A605A68A06822F0F002D4
:103AC00002435A60B9E762681D4E012A33681AD171
:103AD00013F4003FA5D0736841F2883823F0030344
:103AE00013437360FDF766FD07467368626803F071
:103AF0000C03B3EB820FA2D0FDF75CFDC01B404569
:103B0000F3D903208EE7022A02D113F0007FE1E708
:103B100013F0020FDEE7136823F007032B43136053
:103B2000136803F00703AB427FF47BAF8DE76B684C
:103B3000E16823F4E0630B436B608BE700200240F5
:103B400000100240B4BB0008180000202000002034
:103B5000044B054A5B68C3F30223D35C034A106835
:103B6000D840704700100240ACBB0008180000208D
:103B7000044B054A5B68C3F3C223D35C034A106855
:103B8000D840704700100240ACBB0008180000206D
:103B900003682DE9F3410546D80721D5364CE36982
:103BA000D9002BD40126E36943F08053E361E36934
:103BB00003F080530193019B304F3B68DA051FD51A
:103BC000236A6A6813F440732ED1236A6A6823F467
:103BD0004073134323621EB1E36923F08053E36112
:103BE0002A68910706D52449A8684B6823F4404306
:103BF00003434B60D30636D4002012E00026DBE7F7
:103C00003B6843F480733B60FDF7D4FC80463B681F
:103C1000DB05D5D4FDF7CEFCA0EB08006428F6D96F
:103C2000032002B0BDE8F08102F440729A42CCD089
:103C30000120134A236AC2F84004002023F4407193
:103C4000DF07C2F840042162BFD5FDF7B3FC41F2A3
:103C500088380746236A9807B7D4FDF7ABFCC01B2A
:103C60004045F7D9DCE7044AE968536823F4800348
:103C70000B435360C0E700BF0010024000700040DB
:103C800000004242024670B5334B86B002AD03F1EC
:103C900010062C4618685968083303C4B3422546F9
:103CA000F7D140F20123022AADF8043047D0102AA0
:103CB00003D0012A24D0002036E0284A5168106839
:103CC00010F0807030D0C1F3834318336B44C903C4
:103CD00013F8100C49BF5368214BC3F3404318330A
:103CE00041BF6B4413F8141C1E4BB3FBF1F3584354
:103CF00053685B0218D403234000B0FBF3F013E0D9
:103D000040F20231154A136A1940B1F5817F1FD084
:103D100003F44073B3F5007F08D149F64043506A7D
:103D200010F0020018BF184606B070BDB3F5407F12
:103D3000C1D110684FF2244310F40030F2E7FFF7CE
:103D400017FF064B5B68C3F3813301335B00D4E795
:103D50004FF40040E8E700BFC4BB00080010024079
:103D600000093D0000127A00036A70B523F00103D8
:103D70000362036A446882690D6822F073022A4371
:103D80008D6823F002032B430A4DA8420BD1CD6866
:103D900023F008032B4324F44074D1E9055635433E
:103DA00023F004032C43446082614A684263036247
:103DB00070BD00BF002C0140036A70B523F480730E
:103DC0000362036A4468C2690D6822F073022A43E1
:103DD0008D6823F4007343EA05230B4DA8420DD1EF
:103DE000CD6823F4006343EA052324F44054D1E969
:103DF0000556354323F4806344EA05144460C261E8
:103E00004A68C263036270BD002C0140036A30B58A
:103E100023F480530362036A4468C2690D6822F484
:103E2000E64242EA05228D6823F4005343EA053353
:103E3000064DA84202BF4D6924F4804444EA85142B
:103E40004460C2614A680264036230BD002C0140D4
:103E500090F83D30012B20D1022380F83D300368DB
:103E6000DA6842F00102DA600D4A93420AD0B3F1F7
:103E7000804F07D0A2F59432934203D002F58062BE
:103E8000934204D19A6802F00702062A03D01A6806
:103E900042F001021A60002070470120704700BF05
:103EA000002C01407047034630B590F83E0093F86F
:103EB0003F2093F8425093F84340C0B2D2B2EDB2E3
:103EC000E4B2C1B9012845D1012D13D1022283F8F2
:103ED0003E2083F842201A68116A21F00101116224
:103EE000116A41F00101002011621A68136843F061
:103EF0000103136030BD042911D1012A2AD1012CFC
:103F000028D1022283F83F2083F843201A68116ADF
:103F100021F010011162116A41F01001E3E701285C
:103F200018D1012AE6D1012DE4D1012CE2D10222DF
:103F300083F83E2083F83F2083F8422083F8432013
:103F40001A68116A21F001011162116A41F0010140
:103F50001162DCE70120CDE7082910D004D841B177
:103F6000042909D0002070470C29FBD10368186C84
:103F700070470368586B70470368986B7047036815
:103F8000D86B7047704770477047036810B51A695F
:103F9000044691070ED5DA6892070BD56FF002023E
:103FA0001A61012202779B699B0777D001F0F0FC30
:103FB0000023237723681A69500710D5DA68510760
:103FC0000DD56FF004021A61022222779B69204608
:103FD00013F4407F68D001F0DBFC002323772368D3
:103FE0001A6912070FD5DA6810070CD56FF00802AE
:103FF0001A6104222277DB69204699075AD001F022
:10400000C7FC0023237723681A69D20610D5DA6823
:10401000D0060DD56FF010021A6108222277DB69F5
:10402000204613F4407F4BD001F0B2FC00232377ED
:1040300023681A69D10708D5DA68D20705D56FF069
:10404000010220461A6101F0F7FC23681A69100684
:1040500008D5DA68110605D56FF0800220461A618E
:1040600000F02DFC23681A69520608D5DA6850065C
:1040700005D56FF0400220461A61FFF785FF2368DF
:104080001A69910622D5DA6892061FD56FF02002D0
:104090002046BDE810401A6100F010BCFFF772FF27
:1040A0002046FFF770FF83E7FFF76CFF2046FFF71E
:1040B0006AFF92E7FFF766FF2046FFF764FFA0E77D
:1040C000FFF760FF2046FFF75EFFAFE710BD00007F
:1040D0001A4A036890420AD0B0F1804F07D0A2F587
:1040E0009432904203D002F58062904215D14A6822
:1040F00023F070031343114A90420AD0B0F1804F6D
:1041000007D0A2F59432904203D002F5806290422B
:1041100003D1CA6823F4407313434A6923F0800330
:10412000134303608B68C3620B688362034B98423E
:1041300004BF0B690363012343617047002C0140F6
:1041400010B5044630B390F83D3003F0FF021BB9C0
:1041500080F83C20FEF726FC0223206884F83D30DE
:10416000211DFFF7B5FF0123002084F8463084F8B5
:104170003E3084F83F3084F8403084F8413084F891
:10418000423084F8433084F8443084F8453084F871
:104190003D3010BD0120FCE710B5044630B390F867
:1041A0003D3003F0FF021BB980F83C20FEF79AFB7C
:1041B0000223206884F83D30211DFFF789FF012389
:1041C000002084F8463084F83E3084F83F3084F88C
:1041D000403084F8413084F8423084F8433084F829
:1041E000443084F8453084F83D3010BD0120FCE7B0
:1041F00010B5044630B390F83D3003F0FF021BB910
:1042000080F83C20FFF74EFE0223206884F83D3002
:10421000211DFFF75DFF0123002084F8463084F85C
:104220003E3084F83F3084F8403084F8413084F8E0
:10423000423084F8433084F8443084F8453084F8C0
:104240003D3010BD0120FCE7F8B50D4604460028BE
:104250004CD090F83D3003F0FF021BB980F83C20B1
:10426000FEF754FB0223214684F83D3051F8040B3D
:10427000836823F4804323F007038360FFF728FF5C
:1042800081682A688369AE691143AA6823F4407380
:1042900023F0030342EA06221A432B69EE691B014D
:1042A00043EA0623EE6822F47C4233432E6A22F06E
:1042B000FC0243EA0633076A6E6913436A6827F013
:1042C000220742EA061281601743836101230762D5
:1042D000002084F8463084F83E3084F83F3084F87B
:1042E000423084F8433084F83D30F8BD0120FCE7CB
:1042F000036A70B523F010030362036A446882699D
:104300000D6822F4E64242EA05228D6823F020037C
:1043100043EA05130B4DA8420DD1CD6823F080036D
:1043200043EA051324F44064D1E90556354323F0EC
:10433000400344EA8504446082614A688263036200
:1043400070BD00BF002C014038B590F83C300446E9
:10435000012B4ED00123082A80F83C3039D006D8F2
:10436000BAB1042A25D0002084F83C0038BD0C2ABC
:10437000F9D10068FFF74AFDC3690A6943F4006395
:10438000C361C36923F48063C361C36943EA022341
:104390002DE00068FFF7E8FC83690A6943F0080331
:1043A0008361836923F00403836183691343836119
:1043B000D9E70068FFF79CFF83690A6943F400634B
:1043C0008361836923F480638361836943EA022301
:1043D000EDE70068FFF7F0FCC3690A6943F00803E2
:1043E000C361C36923F00403C361C3691343C36199
:1043F000B9E70220BAE7000070B5046A124E24F053
:1044000001040462B0428469056A19D0B0F1804F9A
:1044100016D0A6F59436B04212D006F58066B042AA
:104420000ED044F001021B0122F0F002DBB2134374
:1044300001F00A0125F00A0211438361016270BD97
:1044400024F003042243EEE7002C0140F8B590F875
:104450003C300446012B0D46174673D0012380F8EB
:104460003C30EB68006806C96FB9FFF7C5FF836988
:10447000AA6823F00C0383618369134383610020DE
:1044800084F83C00F8BD042FAE68056A1DD125F004
:10449000100505628569076A25F4407545EA02251D
:1044A0001B03090125F470459BB227F0A00701F01A
:1044B000A0012B43394383610162836923F4406384
:1044C0008361836943EA0623D8E7082F1CD125F4CA
:1044D00080750562C569076A25F0030515431B0150
:1044E000090225F0F005DBB227F4007701F4007132
:1044F0002B433943C3610162C36923F00C03C361D9
:10450000C3693343C361BAE725F480550562C569C1
:10451000076A25F4407545EA02251B03090325F4C3
:1045200070459BB227F4005701F400512B433943E7
:10453000C3610162C36923F44063C361C36943EA91
:104540000623DFE702209DE710B584680A4324F4C0
:104550007F4442EA03222243826010BD38B590F8BE
:104560003C300446012B4FF0020027D0012384F891
:104570003D00206884F83C30836823F47F4323F0B7
:10458000770383600B68602B4AD031D8402B5FD013
:1045900015D8202B03D009D833F0100208D1826837
:1045A00022F07002134343F0070337E0302BF6D0BC
:1045B0000123002084F83D3084F83C0038BD502BA6
:1045C000F6D14A68CD68016A036A21F00A0123F036
:1045D0000103036283690A4323F0F00343EA0513EE
:1045E00083610262836823F0700343F0570315E090
:1045F000702B0BD0B3F5005FDAD1CB68D1E9012184
:10460000FFF7A2FF836843F4804307E0CB68D1E95A
:104610000121FFF799FF836843F077038360C7E7C1
:10462000036A4D6823F01003C96803628269036A54
:1046300022F4704223F0A00343EA051342EA013258
:1046400082610362836823F0700343F06703E5E748
:104650004A68CD68016A036A21F00A0123F0010368
:10466000036283690A4323F0F00343EA051383617D
:104670000262836823F0700343F04703CEE710B56E
:104680000124036A01F01F018C4023EA0403036242
:10469000036A8A401A43026210BD000008B529B9B6
:1046A00090F83E30012B1DD001202EE0042907D1C7
:1046B00090F83F30012BF7D1022380F83F3014E00F
:1046C000082907D190F84030012BEDD1022380F862
:1046D00040300AE090F84130012BE5D1022380F808
:1046E000413002E0022380F83E3000680122FFF7EB
:1046F000C6FF0F4B984209D0B0F1804F0BD18368B1
:1047000003F00703062B0DD1002008BD436C43F4D2
:1047100000434364F3E7074B9842F0D003F580630E
:104720009842ECD0036843F001030360ECE700BF5C
:10473000002C014000040040FFF7B0BF08B503465D
:1047400059BB90F83E0093F84220C0B20128D2B283
:104750005CD1012A20D102221868A1BB83F83E2037
:1047600083F84220C3681343C3600122FFF787FF29
:10477000274B98420AD0B0F1804F07D0A3F594336D
:10478000984203D003F5806398423AD1836803F0DE
:104790000703062B35D1002008BD042905D190F868
:1047A0003F0093F84320C0B2D0E708290BBF90F830
:1047B000400093F8410093F8442093F845200CBF43
:1047C000C0B2C0B2C2E7042907D183F83F2083F802
:1047D0004320C36843F00403C6E7082907D183F8E0
:1047E000402083F84420C36843F00803BCE70C2949
:1047F00083F8412083F84520B7D1C36843F0100304
:10480000B2E7036843F001030360C4E70120C3E794
:10481000002C014030B590F83C300246012B4FF09F
:10482000020022D0136882F83D005C680D6824F015
:1048300070042C4398685C600C4CA3420AD0B3F11E
:10484000804F07D0A4F59434A34203D004F58064CC
:10485000A34204D1496820F08000014399600123FC
:10486000002082F83D3082F83C0030BD002C014031
:1048700090F83C300246012B1ED0CB68886823F4A8
:1048800040730343486823F480630343086823F4B8
:1048900000630343086923F480530343486923F406
:1048A000005303430020C96923F480430B4311687C
:1048B0004B6482F83C007047022070477047704795
:1048C0000368DA6822F49072DA605A6922F0010211
:1048D0005A61026B012A02BFDA6822F01002DA6024
:1048E000202380F83E3000230363704710B5044650
:1048F0000368C1681A6922F440520A431A61826847
:104900000069D9680243606921F4B05121F00C01BB
:1049100002430A43DA605A69A16922F440720A43E9
:104920005A610E4A934215D1FFF722F919234343E6
:10493000626820689200B3FBF2F36422B3FBF2F1E9
:1049400002FB11331B013233B3FBF2F303EB011310
:10495000836010BDFFF7FCF8E8E700BF00380140B6
:104960002DE9F84304460E4617461D464FF47A7863
:104970004FF0000923681B6836EA030301D10020C9
:1049800020E0FFF70FF80023B0FBF8F200214FF012
:10499000FF30FCF7DBFB894508BF8542EAD09DB9B3
:1049A00023680320DA6822F4D072DA605A6922F0B0
:1049B00001025A61202384F83D3084F83E30002300
:1049C00084F83C30BDE8F883FCF7F4FDC01B854259
:1049D000CED2E5E710B5044640B390F83D3003F081
:1049E000FF021BB980F83C20FEF7CCF82423226894
:1049F00084F83D30D368204623F40053D360FFF79A
:104A000075FF236800201A6922F490421A615A69DE
:104A100022F02A025A61DA6842F40052DA60202356
:104A2000206484F83D3084F83E3010BD0120FCE75E
:104A30002DE9F843984690F83D300446202B0E4669
:104A4000174648D1002944D0002A42D090F83C3083
:104A5000012B40D00123002580F83C302123056440
:104A600080F83D30FCF7A6FDA3688146B3F5805F72
:104A7000A784E78403D123690BB935461E4600237A
:104A800084F83C30E38C9BB253B943464A464021FC
:104A90002046FFF765FF50B9202384F83D3007E03A
:104AA00043464A4680212046FFF75AFF10B10320B3
:104AB000BDE8F88322684EB935F8023BC3F308031A
:104AC0005360E18C013989B2E184DBE716F8013BE0
:104AD000F6E70120ECE70220EAE72DE9F8431F465C
:104AE00090F83E300446202B0E4691464FD10029C7
:104AF0004BD0002A49D090F83C30012B47D00123FD
:104B0000002580F83C302223056480F83E300563A0
:104B1000FCF750FDA3688046B3F5805FA4F82C90A5
:104B2000A4F82E9003D123690BB935461E46002305
:104B300084F83C30E08D80B220B9202384F83E30E8
:104B4000BDE8F8833B46424620212046FFF708FF98
:104B5000F8B923684EB95B68C3F3080325F8023B34
:104B6000E38D013B9BB2E385E4E7A268B2F5805F89
:104B700002D032B9226922B95968C9B206F8011BBC
:104B8000EEE7596801F07F01F8E70120D8E702203D
:104B9000D6E70320D4E77047704708B50023406A82
:104BA000C385C384FFF7F8FF08BD704790F83E3017
:104BB00007B5222B37D181680268B1F5805F836A1F
:104BC00034D10169002934D15268C2F3080223F8B4
:104BD000022BC28D8362013A92B2C2851ABB03686E
:104BE000D96821F02001D960D96821F48071D96099
:104BF000596921F001015961202180F83E10016BB3
:104C0000012920D10263D96821F01001D960196807
:104C1000C90605D501921A6801925B680193019B50
:104C2000818DFFF7C2FF03B05DF804FB39B901695C
:104C300029B95268D2B21A70836A0133C9E752683F
:104C400002F07F02F7E7FDF7EBF9ECE7036837B511
:104C50001A68044612F00F0FD9685D6908D19506ED
:104C60005FD58D065DD503B0BDE83040FFF79EBF30
:104C700005F0010001F49075054352D0D50705D524
:104C8000CB0542BF236C43F001032364550704D5D1
:104C900018B1236C43F002032364930704D518B1C1
:104CA000236C43F004032364150707D501F02003A8
:104CB00003431EBF236C43F008032364236C53B3E8
:104CC000920604D58B0602D52046FFF76FFF2168B8
:104CD00020464B69226C03F0400302F0080253EABD
:104CE00002051AD0FFF7ECFD4B695D0610D54B6944
:104CF000A06B23F040034B6150B1534B4363FEF76D
:104D000079FB40B1A06B436B03B0BDE8304018475E
:104D10002046FFF741FF03B030BDFFF73DFF25649C
:104D2000F9E7206B012855D1D00653D5CD0651D5D2
:104D3000002101911A6801925A680192019A5A69F8
:104D400012F040022AD0A06B0268526892B2002A88
:104D5000E1D0A58D9542DED9E2858269202A15D061
:104D6000DA6822F48072DA605A6922F001025A612C
:104D70005A6922F040025A61202284F83E202163C1
:104D8000DA6822F01002DA60FEF714FBE38DA18DE1
:104D9000C91A89B22046FFF708FFBCE7E08DE58D10
:104DA000A18DADB280B2002DB5D0091A89B200290B
:104DB000B1D0D86820F49070D860586920F0010014
:104DC0005861202084F83E002263DA6822F0100245
:104DD000DA60DFE7100626D50D0624D594F83D20CD
:104DE000212A98D1A168226AB1F5805F16D1216984
:104DF000A1B932F8021BC1F3080159602262E28CAA
:104E0000013A92B2E284002A85D1DA6822F0800267
:104E1000DA60DA6842F04002DA607CE7511C216215
:104E200012785A60EBE750067FF575AF4A067FF5BA
:104E300072AFDA68204622F04002DA60202384F85C
:104E40003D30FFF7A8FE66E79B4B0008C2858285D0
:104E50008162034622220020186483F83C0083F814
:104E60003E201B68DA6842F48072DA605A6942F0C8
:104E700001025A61DA6842F02002DA60704770B4C9
:104E800090F83E60202E0DD149B142B190F83C40DF
:104E9000012C07D00024046370BCFFF7D7BF0120AA
:104EA00070BC70470220FBE703788B5443781144B1
:104EB0004B7083788B70C378CB70704707B54B1EEF
:104EC000092B01900ED80239082906D8DFE801F035
:104ED0000D0F11131517191B1D0001220C4901A8F4
:104EE000FFF7E2FF03B05DF804FB0522F6E70922B5
:104EF000F4E70D22F2E71122F0E71522EEE719227E
:104F0000ECE71D22EAE72122E8E72522E6E700BFD9
:104F100090090020431E092B37D824221C4B02384D
:104F20001A70082806D8DFE800F0090D1115191DC0
:104F300021262B00052206205A71704709220A20DB
:104F40005A7270470D220E205A7370471122122098
:104F50005A747047152216205A75704719221A2064
:104F60005A7670471D221E205A7770472122222030
:104F700083F8212070472522262083F825207047BA
:104F800029222A2083F8292070470020704700BF7B
:104F9000900900202DE9F04F914287B09946DDE954
:104FA00010630F46129D0290039330D14FF0000B17
:104FB0008B004FEA89020193029B9B452DDA002466
:104FC00015E0196856F82A0005920493FBF7B2FE23
:104FD00001464046FBF7A6FDDDE9043280460AF1B2
:104FE000010A1344BA4545F82480EADB01344C45F4
:104FF00007DA039B4FF000084FF0000A03EB84032D
:10500000F0E7019B0BF1010B15441E44D4E7044863
:1050100007B0BDE8F04F03F03BBD07B0BDE8F08F2F
:10502000D5BB00082DE9F04F8E4EA5B014AD8846D3
:105030000590069296E80F0085E80F008A4B10361F
:105040004FF00009089396E80F00102600244FF057
:105050007E5B0DF1600A8AE80F00324649461CA8C3
:10506000CDE90E99CDE910990994CDF828B00B94AB
:10507000CDF830B00D9403F017FF3246494620A812
:1050800003F012FF4046CDE912990794FBF7C4F9EB
:1050900080468946059B754E03F10040FBF7BCF93D
:1050A00042464B4604F0BEFCFBF7E6FC02220EAB88
:1050B0001146CDE900560590029310460123FFF7F3
:1050C00069FF06AB019308AB0093012310AF1A46AA
:1050D000194602970220FFF75DFF10990E98FBF723
:1050E00021FD634F119938600F98FBF71BFD1CAB36
:1050F000786002935F4BDFF88081CDE90053022393
:105100001A4619461846FFF745FF022320AACDE9A3
:1051100001A21CAA1946184600921A46FFF73AFF48
:1051200020985649FBF7FEFC2146C8F8000021985C
:10513000FBF7F8FC2146C8F804002298FBF7F2FCC4
:105140004E49C8F808002398FBF7ECFC02230DF148
:10515000280A12AAC8F80C001946CDE901820120DC
:105160001A46CDF800A0FFF715FF12AA01230092FE
:1051700002220DF11C090CAD114618460195CDF81F
:105180000890FFF707FF07983D49FBF7CBFC014666
:105190005846FBF783FE0EAACDE901520222079082
:1051A000114610460123CDF80080FFF7F3FE0123DE
:1051B000344D0EAA1946009202201A46CDE90195F7
:1051C000FFF7E8FE0123022218461146CDE90179D6
:1051D000CDF800A0FFF7DEFE07990598FBF7A0FCCD
:1051E00001230EAA1946CDE9019207901A46022022
:1051F0000095FFF7CFFE38680E99FBF793FC0F99E7
:1052000030607868FBF78EFC1CAA02237060CDE941
:1052100001A20122184611460095FFF7BBFE1C991A
:105220005846FBF77DFC1D991C902046FBF778FC47
:105230001E991D902046FBF773FC1F991E9058463F
:10524000FBF76EFC0B4B1F90CDE901831CAB009369
:10525000022318461A461946FFF79CFE306825B00F
:10526000BDE8F08F28B100080AD7A33B040A00204C
:10527000FC09002034000020EC090020FFE6DB2EB2
:1052800017B7D138E40900202DE9F04F8E4EA5B0B4
:1052900014AD88460590069296E80F0085E80F0049
:1052A0008A4B10364FF00009089396E80F0010263D
:1052B00000244FF07E5B0DF1600A8AE80F00324651
:1052C00049461CA8CDE90E99CDE910990994CDF86D
:1052D00028B00B94CDF830B00D9403F0E5FD3246C4
:1052E000494620A803F0E0FD4046CDE91299079415
:1052F000FBF792F880468946059B754E03F1004006
:10530000FBF78AF842464B4604F08CFBFBF7B4FBF4
:1053100002220EAB1146CDE90056059002931046CD
:105320000123FFF737FE06AB019308AB009301237F
:1053300010AF1A46194602970220FFF72BFE10996C
:105340000E98FBF7EFFB634F119938600F98FBF74E
:10535000E9FB1CAB786002935F4BDFF88081CDE9FD
:10536000005302231A4619461846FFF713FE02237C
:1053700020AACDE901A21CAA1946184600921A4695
:10538000FFF708FE20985649FBF7CCFB2146C8F8EA
:1053900000002198FBF7C6FB2146C8F804002298BC
:1053A000FBF7C0FB4E49C8F808002398FBF7BAFB8F
:1053B00002230DF1280A12AAC8F80C001946CDE9FB
:1053C000018201201A46CDF800A0FFF7E3FD12AAE2
:1053D0000123009202220DF11C090CAD1146184662
:1053E0000195CDF80890FFF7D5FD07983D49FBF7EB
:1053F00099FB01465846FBF751FD0EAACDE9015233
:1054000002220790114610460123CDF80080FFF7D5
:10541000C1FD0123344D0EAA1946009202201A46FE
:10542000CDE90195FFF7B6FD01230222184611468A
:10543000CDE90179CDF800A0FFF7ACFD07990598FB
:10544000FBF76EFB01230EAA1946CDE901920790E6
:105450001A4602200095FFF79DFD38680E99FBF76C
:1054600061FB0F9930607868FBF75CFB1CAA022394
:105470007060CDE901A20122184611460095FFF7A0
:1054800089FD1C995846FBF74BFB1D991C90204643
:10549000FBF746FB1E991D902046FBF741FB1F9929
:1054A0001E905846FBF73CFB0B4B1F90CDE9018348
:1054B0001CAB0093022318461A461946FFF76AFDF3
:1054C000306825B0BDE8F08F28B100080AD7A33BAB
:1054D000DC090020D409002024000020C409002099
:1054E000FFE6DB2E17B7D138BC09002090F9003059
:1054F000002B0CDC0DD190F90130002B0BDC0CD112
:1055000090F90230002B0ADC0BD0062070470020F7
:105510007047042070470120704705207047022023
:1055200070470720704707B50323009002226B21C4
:10553000D020FCF704FB03B05DF804FB07B50223A1
:10554000009004221B21D020FCF7F9FA03B05DF88B
:1055500004FB07B50223009004221C21D020FCF795
:10556000EEFA03B05DF804FB034606226B21D0205F
:10557000FCF70BBB034605226A21D020FCF705BBD4
:10558000034601223721D020FCF7FFBA08B50220DC
:10559000FFF7C9FF0320FFF7D1FF0020FFF7D9FF76
:1055A0000020FFF7E1FF0020FFF7E4FFBDE808401F
:1055B0000020FFF7E5BF0000002310B5554888B074
:1055C0008DF80030FCF7F6FF6B460122752168204C
:1055D000FCF734FA504803F0C3FA9DF80030682B0A
:1055E0000CD0BFF34F8F4D494D4BCA6802F4E062B7
:1055F0001343CB60BFF34F8F00BFFDE701F0CCFE3C
:10560000002840F08180782001F066FE10B9424801
:1056100003F0A6FA782001F0B3FC10B9414803F07A
:105620009FFAC82001F018FE10B93F4803F098FA1D
:1056300002F0CAF910B93D4803F092FA3C48FFF76E
:1056400055FF02463B48FFF751FF01463A48FFF736
:105650004DFF830143EAC100104380B202F0BEF95E
:1056600010B9364803F07CFA40F2731002F084FC63
:1056700010B9334803F074FAC82002F0E7FA10B901
:10568000304803F06DFA05A902A802F009F80728CE
:1056900033D101A801F034FC019C0298FBF7F6FA23
:1056A0002146FBF747FBFBF70BFD02900398FBF746
:1056B000EDFA2146FBF73EFBFBF702FD0390049851
:1056C000FBF7E4FA2146FBF735FBFBF7F9FC049006
:1056D00002A802F023FA0DF1020001F031FCBDF83E
:1056E0000220059B05A853430593069B534306934D
:1056F000079B5343079302F05DFA012001F092FFEC
:1057000010B9114803F02CFA1048FCF753FF08B009
:1057100010BD00BF48090020ECBB000800ED00E010
:105720000400FA050CBC000830BC000855BC000899
:1057300044000020470000204A00002086BC0008EA
:10574000ABBC0008CFBC0008F2BC00080409002074
:105750002DE9F04F6E4C89B00DF10B0301936D49AB
:1057600003AB6D48009404AA02F0E0FC2388DB053B
:1057700040F1C5800498FBF789FA4FF04251FBF7DE
:10578000D9FA664B064618600598FBF77FFA4FF08A
:105790004251FBF7CFFA624B054618600698FBF7BB
:1057A00075FA4FF04251FBF7C5FA5E4B044618609C
:1057B0000798FBF76BFA4FF04251FBF7BBFA5A4BD5
:1057C000074618604FF040412846FBF7B3FA3146D0
:1057D00080463046FBF7A6F9414682463846FBF73D
:1057E000A9FA514681462046FBF7A4FA01464846ED
:1057F000FBF798F9FAF710FE04F0ECF842A3D3E9AE
:105800000023FAF761FEFBF737F9484B2146186091
:105810002046FBF787F9414683462846FBF78AFA7C
:10582000594680462046FBF785FA01464046FBF77D
:1058300077F94FF07E51FBF775F9FAF7EDFD8046E9
:10584000894638465946FBF775FA5146834628463D
:10585000FBF770FA01465846FBF764F9FAF7DCFDEE
:1058600042464B4604F0DEF827A3D3E90023FAF7BB
:105870002BFEFBF701F92E4B314618603046FBF743
:1058800059FA294680462846FBF754FA0146404615
:10589000FBF748F9214680462046FBF74BFA0146C4
:1058A0004046FBF73DF9394680463846FBF742FA59
:1058B00001464046FBF734F9FAF7AEFD80468946CB
:1058C00028462146FBF736FA394604463046FBF7B0
:1058D00031FA01462046FBF725F90146FBF722F98C
:1058E000FAF79AFD42464B4604F09CF806A3D3E92A
:1058F0000023FAF7E9FDFBF7BFF80E4B186009B07B
:10590000BDE8F08FAFF300806666666666A64C4021
:10591000240A0020260A00202C0A00205000002023
:10592000140A0020100A00200C0A0020200A00207F
:105930001C0A0020180A002008B501220221104884
:10594000FDF77AFE0F20FBF7ADFE002202210C4886
:10595000FDF772FE0B490B881A060FD503F03F02C4
:10596000094B1B8803EB0243AA2253434FF47A727C
:10597000B3FBF2F3054A136000230B8008BD00BFA0
:10598000000C0140340A0020320A0020B807002031
:1059900038B5264B044698422AD1037F042B27D1E1
:1059A000234A1388190623D413F04001214D20D037
:1059B00043F0800308211380FEF7CEFA41F2111262
:1059C00023682880196A114208D140F24442196ABA
:1059D000114202BF1A6822F001021A601A6A22F408
:1059E00000721A621A6A1A621A6842F001021A6098
:1059F00038BD4023138041F2111203682980196ACF
:105A0000114208D140F24442196A114202BF1A6899
:105A100022F001021A6000225A621A6A22F400720D
:105A20001A621A6A42F40072DDE700BF2C080020F7
:105A3000340A0020320A00200B4B834213D10B4A58
:105A4000138818060FD459060DD503F03F013F29DE
:105A500007D143F0800313804FF6FF72044B1A8086
:105A600070470133138070472C080020340A00204F
:105A7000320A0020124B70B5064618680D4600F138
:105A800000401049FBF70AFA314604460020FBF7B4
:105A900047F801462046FBF74DF929460446002009
:105AA000FBF73EF8084B1968FBF744F90549FBF78B
:105AB000F5F901462046FBF733F8FBF701FB70BD13
:105AC000100000200000C8420C00002070B5204BE0
:105AD00005461C681F4B1B78012B29D11E4B1878DB
