:020000040800F2
:1000000000500020B12C0008552700085727000891
:10001000592700085B2700085D2700080000000042
:100020000000000000000000000000005F27000842
:10003000612700080000000063270008652700080A
:10004000F92C0008F92C0008F92C0008F92C0008FC
:10005000F92C0008F92C0008F92C0008F92C0008EC
:10006000F92C0008F92C0008F92C0008F92C0008DC
:10007000F92C0008F92C0008F92C0008F92C0008CC
:10008000F92C0008F92C0008F92C0008F92C0008BC
:10009000F92C0008F92C0008F92C0008F92C0008AC
:1000A000F92C0008F92C0008F92C0008F92C00089C
:1000B000F92C000869270008F92C0008F92C000821
:1000C000F92C0008F92C0008F92C0008F92C00087C
:1000D000F92C0008F92C0008F92C000875270008F5
:1000E00081270008F92C0008F92C00080000000006
:1000F0000000000000000000000000000000000000
:0C01000000000000000000005FF808F1A3
:1001100010B5054C237833B9044B13B10448AFF341
:1001200000800123237010BDEC00002000000000BF
:100130003CB1000808B5034B1BB103490348AFF3BA
:10014000008008BD00000000F00000203CB1000865
:1001500081F0004102E000BF83F0004330B54FEA78
:1001600041044FEA430594EA050F08BF90EA020FE5
:100170001FBF54EA000C55EA020C7FEA645C7FEA78
:10018000655C00F0E2804FEA5454D4EB5555B8BF9B
:100190006D420CDD2C4480EA020281EA030382EA0C
:1001A000000083EA010180EA020281EA0303362D9E
:1001B00088BF30BD11F0004F4FEA01314FF4801C71
:1001C0004CEA113102D0404261EB410113F0004F83
:1001D0004FEA03334CEA133302D0524263EB43033A
:1001E00094EA050F00F0A780A4F10104D5F1200ED8
:1001F0000DDB02FA0EFC22FA05F2801841F1000133
:1002000003FA0EF2801843FA05F359410EE0A5F106
:1002100020050EF1200E012A03FA0EFC28BF4CF037
:10022000020C43FA05F3C01851EBE37101F00045ED
:1002300007D54FF0000EDCF1000C7EEB00006EEBFA
:100240000101B1F5801F1BD3B1F5001F0CD3490884
:100250005FEA30004FEA3C0C04F101044FEA4452DB
:1002600012F5800F80F09A80BCF1004F08BF5FEA62
:10027000500C50F1000041EB045141EA050130BD42
:100280005FEA4C0C404141EB0101013C28BFB1F554
:10029000801FE9D291F0000F04BF01460020B1FA9F
:1002A00081F308BF2033A3F10B03B3F120020CDA72
:1002B0000C3208DD02F1140CC2F10C0201FA0CF050
:1002C00021FA02F10CE002F11402D8BFC2F1200CB5
:1002D00001FA02F120FA0CFCDCBF41EA0C0190406B
:1002E000E41AA2BF01EB0451294330BD6FEA0404B4
:1002F0001F3C1CDA0C340EDC04F11404C4F120029F
:1003000020FA04F001FA02F340EA030021FA04F3B0
:1003100045EA030130BDC4F10C04C4F1200220FA07
:1003200002F001FA04F340EA0300294630BD21FA45
:1003300004F0294630BD94F0000F83F4801306BF0B
:1003400081F480110134013D4EE77FEA645C18BFFF
:100350007FEA655C29D094EA050F08BF90EA020F96
:1003600005D054EA000C04BF1946104630BD91EA8E
:10037000030F1EBF0021002030BD5FEA545C05D191
:100380004000494128BF41F0004130BD14F58004D0
:100390003CBF01F5801130BD01F0004545F0FE4144
:1003A00041F470014FF0000030BD7FEA645C1ABF79
:1003B000194610467FEA655C1CBF0B46024650EAB0
:1003C000013406BF52EA033591EA030F41F40021DC
:1003D00030BD00BF90F0000F04BF0021704730B562
:1003E0004FF4806404F132044FF000054FF0000137
:1003F00050E700BF90F0000F04BF0021704730B5F8
:100400004FF4806404F1320410F0004548BF4042CC
:100410004FF000013EE700BF42004FEAE2014FEA21
:1004200031014FEA02701FBF12F07F4393F07F4FFC
:1004300081F06051704732F07F4208BF704793F0FF
:100440007F4F04BF41F40021704730B54FF4607412
:1004500001F0004521F000411CE700BF50EA010215
:1004600008BF704730B54FF000050AE050EA0102BE
:1004700008BF704730B511F0004502D5404261EB2E
:1004800041014FF4806404F132045FEA915C3FF46F
:10049000D8AE4FF003025FEADC0C18BF03325FEA0C
:1004A000DC0C18BF033202EBDC02C2F1200300FABD
:1004B00003FC20FA02F001FA03FE40EA0E0021FAE2
:1004C00002F11444BDE600BF70B54FF0FF0C4CF4D0
:1004D000E06C1CEA11541DBF1CEA135594EA0C0F82
:1004E00095EA0C0F00F0DEF82C4481EA030621EABD
:1004F0004C5123EA4C5350EA013518BF52EA0335F8
:1005000041F4801143F4801338D0A0FB02CE4FF0A9
:100510000005E1FB02E506F00042E0FB03E54FF0D9
:100520000006E1FB03569CF0000F18BF4EF0010ED1
:10053000A4F1FF04B6F5007F64F5407404D25FEACD
:100540004E0E6D4146EB060642EAC62141EA555180
:100550004FEAC52040EA5E504FEACE2EB4F1FD0CC2
:1005600088BFBCF5E06F1ED8BEF1004F08BF5FEA40
:10057000500E50F1000041EB045170BD06F00046F2
:1005800046EA010140EA020081EA0301B4EB5C049F
:10059000C2BFD4EB0C0541EA045170BD41F4801197
:1005A0004FF0000E013C00F3AB8014F1360FDEBFBC
:1005B000002001F0004170BDC4F10004203C35DA98
:1005C0000C341BDC04F11404C4F1200500FA05F31B
:1005D00020FA04F001FA05F240EA020001F00042BC
:1005E00021F0004110EBD37021FA04F642EB060132
:1005F0005EEA430E08BF20EAD37070BDC4F10C045C
:10060000C4F1200500FA04F320FA05F001FA04F21F
:1006100040EA020001F0004110EBD37041F100010B
:100620005EEA430E08BF20EAD37070BDC4F1200516
:1006300000FA05F24EEA020E20FA04F301FA05F27E
:1006400043EA020321FA04F001F0004121FA04F226
:1006500020EA020000EBD3705EEA430E08BF20EAF6
:10066000D37070BD94F0000F0FD101F00046400030
:1006700041EB010111F4801F08BF013CF7D041EAB2
:10068000060195F0000F18BF704703F000465200B6
:1006900043EB030313F4801F08BF013DF7D043EA87
:1006A0000603704794EA0C0F0CEA135518BF95EA3D
:1006B0000C0F0CD050EA410618BF52EA4306D1D1C4
:1006C00081EA030101F000414FF0000070BD50EAE3
:1006D000410606BF1046194652EA430619D094EA6D
:1006E0000C0F02D150EA013613D195EA0C0F05D157
:1006F00052EA03361CBF104619460AD181EA0301AB
:1007000001F0004141F0FE4141F470014FF0000062
:1007100070BD41F0FE4141F4780170BD70B54FF0FD
:10072000FF0C4CF4E06C1CEA11541DBF1CEA13557D
:1007300094EA0C0F95EA0C0F00F0A7F8A4EB05045F
:1007400081EA030E52EA03354FEA013100F0888056
:100750004FEA03334FF0805545EA131343EA12631F
:100760004FEA022245EA111545EA10654FEA0026D4
:100770000EF000419D4208BF964244F1FD0404F58D
:10078000407402D25B084FEA3202B61A65EB0305E9
:100790005B084FEA32024FF480104FF4002CB6EBA6
:1007A000020E75EB030E22BFB61A754640EA0C0026
:1007B0005B084FEA3202B6EB020E75EB030E22BF66
:1007C000B61A754640EA5C005B084FEA3202B6EBA7
:1007D000020E75EB030E22BFB61A754640EA9C0066
:1007E0005B084FEA3202B6EB020E75EB030E22BF36
:1007F000B61A754640EADC0055EA060E18D04FEAF4
:10080000051545EA16754FEA06164FEAC30343EA93
:1008100052734FEAC2025FEA1C1CC0D111F4801F60
:100820000BD141EA00014FF000004FF0004CB6E759
:1008300011F4801F04BF01430020B4F1FD0C88BFF8
:10084000BCF5E06F3FF6AFAEB5EB030C04BFB6EB03
:10085000020C5FEA500C50F1000041EB045170BDF6
:100860000EF0004E4EEA113114EB5C04C2BFD4EB23
:100870000C0541EA045170BD41F480114FF0000EA7
:10088000013C90E645EA060E8DE60CEA135594EA23
:100890000C0F08BF95EA0C0F3FF43BAF94EA0C0F26
:1008A0000AD150EA01347FF434AF95EA0C0F7FF49B
:1008B00025AF104619462CE795EA0C0F06D152EAEF
:1008C00003353FF4FDAE1046194622E750EA4106D3
:1008D00018BF52EA43067FF4C5AE50EA41047FF4E4
:1008E0000DAF52EA43057FF4EBAE12E74FF0FF3C49
:1008F00006E000BF4FF0010C02E000BF4FF0010C1A
:100900004DF804CD4FEA410C7FEA6C5C4FEA430C92
:1009100018BF7FEA6C5C1BD001B050EA410C0CBFE1
:1009200052EA430C91EA030F02BF90EA020F002043
:10093000704710F1000F91EA030F58BF994208BFAA
:1009400090422CBFD8176FEAE37040F00100704767
:100950004FEA410C7FEA6C5C02D150EA013C07D1BE
:100960004FEA430C7FEA6C5CD6D152EA033CD3D009
:100970005DF8040B704700BF8446104662468C4603
:100980001946634600E000BF01B5FFF7B7FF002836
:1009900048BF10F1000F01BD4DF808EDFFF7F4FF5F
:1009A0000CBF012000205DF808FB00BF4DF808EDEA
:1009B000FFF7EAFF34BF012000205DF808FB00BF0D
:1009C0004DF808EDFFF7E0FF94BF012000205DF82F
:1009D00008FB00BF4DF808EDFFF7CEFF94BF0120E4
:1009E00000205DF808FB00BF4DF808EDFFF7C4FFDD
:1009F00034BF012000205DF808FB00BF4FEA410C26
:100A00007FEA6C5C02D150EA013C0AD14FEA430C08
:100A10007FEA6C5C02D152EA033C02D14FF0000045
:100A200070474FF0010070474FEA410212F5001283
:100A300015D211D56FF47873B3EB625212D94FEA25
:100A4000C12343F0004343EA505311F0004F23FA0F
:100A500002F018BF404270474FF00000704750EA64
:100A6000013005D111F0004008BF6FF00040704721
:100A70004FF00000704700BF4FEA4102B2F1E0437F
:100A800024BFB3F5001CDCF1FE5C0DD901F0004C75
:100A90004FEAC0024CEA5070B2F1004F40EB8300C5
:100AA00008BF20F00100704711F0804F21D113F1F1
:100AB0003872BCBF01F00040704741F480114FEA2A
:100AC0005252C2F11802C2F1200C10FA0CF320FAB3
:100AD00002F018BF40F001004FEAC1234FEAD323D0
:100AE00003FA0CFC40EA0C0023FA02F34FEA43033A
:100AF000CCE77FEA625307D150EA01331EBF4FF0C3
:100B0000FE4040F44000704701F0004040F0FE40DD
:100B100040F40000704700BF80F0004002E000BFDA
:100B200081F0004142001FBF5FEA410392EA030FD8
:100B30007FEA226C7FEA236C6AD04FEA1262D2EB22
:100B40001363C1BFD218414048404140B8BF5B4227
:100B5000192B88BF704710F0004F40F4000020F0C0
:100B60007F4018BF404211F0004F41F4000121F0D6
:100B70007F4118BF494292EA030F3FD0A2F1010220
:100B800041FA03FC10EB0C00C3F1200301FA03F15E
:100B900000F0004302D5494260EB4000B0F5000F81
:100BA00013D3B0F1807F06D340084FEA310102F140
:100BB0000102FE2A51D2B1F1004F40EBC25008BFF2
:100BC00020F0010040EA03007047490040EB0000BC
:100BD000013A28BFB0F5000FEDD2B0FA80FCACF1BD
:100BE000080CB2EB0C0200FA0CF0AABF00EBC250EA
:100BF00052421843BCBFD0401843704792F0000FD8
:100C000081F4000106BF80F400000132013BB5E72A
:100C10004FEA41037FEA226C18BF7FEA236C21D0A0
:100C200092EA030F04D092F0000F08BF0846704705
:100C300090EA010F1CBF0020704712F07F4F04D1D3
:100C4000400028BF40F00040704712F100723CBFE6
:100C500000F50000704700F0004343F0FE4040F410
:100C6000000070477FEA226216BF08467FEA2363CE
:100C70000146420206BF5FEA412390EA010F40F4B9
:100C8000800070474FF0000304E000BF10F0004305
:100C900048BF40425FEA000C08BF704743F09643EC
:100CA00001464FF000001CE050EA010208BF704707
:100CB0004FF000030AE000BF50EA010208BF70478E
:100CC00011F0004302D5404261EB41015FEA010CA3
:100CD00002BF84460146002043F0B64308BFA3F19B
:100CE0008053A3F50003BCFA8CF2083AA3EBC2537D
:100CF00010DB01FA02FC634400FA02FCC2F120029C
:100D0000BCF1004F20FA02F243EB020008BF20F0D2
:100D10000100704702F1200201FA02FCC2F1200238
:100D200050EA4C0021FA02F243EB020008BF20EA2D
:100D3000DC7070474FF0FF0C1CEAD0521EBF1CEA5B
:100D4000D15392EA0C0F93EA0C0F6FD01A4480EA49
:100D5000010C400218BF5FEA41211ED04FF0006332
:100D600043EA501043EA5111A0FB01310CF000405E
:100D7000B1F5000F3EBF490041EAD3715B0040EA84
:100D8000010062F17F02FD2A1DD8B3F1004F40EB54
:100D9000C25008BF20F00100704790F0000F0CF027
:100DA000004C08BF49024CEA502040EA51207F3AEB
:100DB000C2BFD2F1FF0340EAC250704740F40000C6
:100DC0004FF00003013A5DDC12F1190FDCBF00F0B7
:100DD00000407047C2F10002410021FA02F1C2F165
:100DE000200200FA02FC5FEA310040F1000053EA01
:100DF0004C0308BF20EADC70704792F0000F00F04F
:100E0000004C02BF400010F4000F013AF9D040EA54
:100E10000C0093F0000F01F0004C02BF490011F4E8
:100E2000000F013BF9D041EA0C018FE70CEAD153E6
:100E300092EA0C0F18BF93EA0C0F0AD030F0004C66
:100E400018BF31F0004CD8D180EA010000F000401A
:100E5000704790F0000F17BF90F0004F084691F0D8
:100E6000000F91F0004F14D092EA0C0F01D1420212
:100E70000FD193EA0C0F03D14B0218BF084608D1DB
:100E800080EA010000F0004040F0FE4040F4000025
:100E9000704740F0FE4040F4400070474FF0FF0CB8
:100EA0001CEAD0521EBF1CEAD15392EA0C0F93EAFF
:100EB0000C0F69D0A2EB030280EA010C49024FEA51
:100EC000402037D04FF0805343EA111143EA10130A
:100ED0000CF000408B4238BF5B0042F17D024FF4C2
:100EE000000C8B4224BF5B1A40EA0C00B3EB510F9D
:100EF00024BFA3EB510340EA5C00B3EB910F24BF86
:100F0000A3EB910340EA9C00B3EBD10F24BFA3EB0A
:100F1000D10340EADC001B0118BF5FEA1C1CE0D1D2
:100F2000FD2A3FF650AF8B4240EBC25008BF20F085
:100F3000010070470CF0004C4CEA50207F32C2BFD9
:100F4000D2F1FF0340EAC250704740F400004FF076
:100F50000003013A37E792F0000F00F0004C02BFA7
:100F6000400010F4000F013AF9D040EA0C0093F071
:100F7000000F01F0004C02BF490011F4000F013BCB
:100F8000F9D041EA0C0195E70CEAD15392EA0C0F33
:100F900008D142027FF47DAF93EA0C0F7FF470AF6B
:100FA000084676E793EA0C0F04D14B023FF44CAFAE
:100FB00008466EE730F0004C18BF31F0004CCAD143
:100FC00030F000427FF45CAF31F000437FF43CAF7F
:100FD0005FE700BF4FF0FF3C06E000BF4FF0010CA1
:100FE00002E000BF4FF0010C4DF804CD4FEA400283
:100FF0004FEA41037FEA226C18BF7FEA236C11D0CD
:1010000001B052EA530C18BF90EA010F58BFB2EB7F
:10101000030088BFC81738BF6FEAE17018BF40F0FF
:10102000010070477FEA226C02D15FEA402C05D1B3
:101030007FEA236CE4D15FEA412CE1D05DF8040B38
:10104000704700BF844608466146FFE70FB5FFF7CB
:10105000C9FF002848BF10F1000F0FBD4DF808ED83
:10106000FFF7F4FF0CBF012000205DF808FB00BF74
:101070004DF808EDFFF7EAFF34BF012000205DF8CE
:1010800008FB00BF4DF808EDFFF7E0FF94BF01201B
:1010900000205DF808FB00BF4DF808EDFFF7D2FF18
:1010A00094BF012000205DF808FB00BF4DF808ED5B
:1010B000FFF7C8FF34BF012000205DF808FB00BF28
:1010C0004FEA4002B2F1FE4F0FD34FF09E03B3EB55
:1010D00012620DD94FEA002343F0004310F0004F95
:1010E00023FA02F018BF404270474FF000007047EB
:1010F00012F1610F01D1420205D110F0004008BF8A
:101100006FF0004070474FF00000704742000ED271
:10111000B2F1FE4F0BD34FF09E03B3EB126209D432
:101120004FEA002343F0004323FA02F070474FF0E8
:101130000000704712F1610F01D1420202D14FF05D
:10114000FF3070474FF00000704700BF7BB972B9A5
:101150000029BEBF00204FF0004106E008BF002874
:101160001CBF6FF000414FF0FF3000F0A9B9ADF1A6
:10117000080C6DE904CE002909DB002B1ADB00F016
:1011800035F8DDF804E0DDE9022304B070474042A1
:1011900061EB4101002B1BDB00F028F8DDF804E0D7
:1011A000DDE9022304B0404261EB4101524263EBAE
:1011B00043037047524263EB430300F017F8DDF836
:1011C00004E0DDE9022304B0404261EB41017047D5
:1011D000524263EB430300F009F8DDF804E0DDE977
:1011E000022304B0524263EB430370472DE9F047FA
:1011F000089E0D4604468846002B4DD18A429446EF
:1012000068D9B2FA82F252B101FA02F3C2F12001B6
:1012100020FA01F10CFA02FC41EA030894404FEA7B
:101220001C41B8FBF1F71FFA8CFE01FB178807FB86
:101230000EF0230C43EA084398420AD91CEB03033F
:1012400007F1FF3580F01E81984240F21B81023F7A
:1012500063441B1AB3FBF1F001FB103300FB0EFEDD
:10126000A4B244EA0344A6450AD91CEB040400F1E5
:10127000FF3380F00981A64540F2068164440238BC
:101280000021A4EB0E0440EA07401EB10023D44025
:10129000C6E90043BDE8F0878B4208D9002E00F074
:1012A000EE800021C6E900050846BDE8F087B3FAE4
:1012B00083F100294AD1AB4202D3824200F2FC8082
:1012C000841A65EB030301209846002EE2D0C6E99C
:1012D0000048DFE702B9FFDEB2FA82F2002A40F0EE
:1012E0009180A1EB0C0001214FEA1C471FFA8CFEF4
:1012F000B0FBF7F307FB1300250C45EA00450EFB96
:1013000003F0A84208D91CEB050503F1FF3802D20F
:10131000A84200F2CE8043462D1AB5FBF7F007FB3A
:1013200010550EFB00FEA4B244EA0544A64508D9B8
:101330001CEB040400F1FF3502D2A64500F2B68092
:101340002846A4EB0E0440EA03409EE7C1F12007C3
:101350008B4022FA07FC4CEA030C25FA07FA4FEA05
:101360001C49BAFBF9F820FA07F309FB18AA8D40CB
:101370001FFA8CFE1D4300FA01F308FB0EF02C0C43
:1013800044EA0A44A04202FA01F20BD91CEB04041D
:1013900008F1FF3A80F08880A04240F28580A8F1F1
:1013A00002086444241AB4FBF9F009FB104400FB62
:1013B0000EFEADB245EA0444A64508D91CEB040470
:1013C00000F1FF356CD2A6456AD90238644440EA80
:1013D0000840A0FB0295A4EB0E04AC42C846AE4602
:1013E00056D353D0002E69D0B3EB080264EB0E0441
:1013F00022FA01F304FA07F71F43CC40C6E9007450
:10140000002147E70CFA02FCC2F1200125FA01F3A2
:101410004FEA1C4720FA01F195400D43B3FBF7F169
:1014200007FB11331FFA8CFE280C40EA034001FB36
:101430000EF3834204FA02F408D91CEB000001F118
:10144000FF382FD283422DD902396044C01AB0FB35
:10145000F7F307FB1300ADB245EA004503FB0EF0BE
:10146000A84208D91CEB050503F1FF3816D2A842A3
:1014700014D9023B6544281A43EA014138E7314652
:10148000304607E72F46E4E61846F9E64B45A9D271
:10149000B9EB020865EB0C0E0138A3E74346EAE717
:1014A000284694E74146D1E7D0467BE764440238BA
:1014B00047E7023B65442FE7084606E73146E9E681
:1014C000704700BF024610B528B9BDE81040102192
:1014D000074802F0E1B8074C2368013383422360D8
:1014E00005D11021024802F0DCF80023236010BD72
:1014F000000801400801002028B3012823D0022859
:1015000021D003281FD004281DD005281BD0062871
:1015100019D0072817D0082815D0092812D00A2872
:1015200011D00B280FD00C280DD00D280BD00E2871
:1015300009D00F2807D0102805D0112814BF00208B
:1015400011207047092070471FB5FFF7D5FF012311
:10155000019003910D4801A9029301F0C1FC08B16B
:1015600001F046F8094801F077FDC821074801F06D
:10157000E3FB064801F032FD10F4007003D003488D
:1015800001F0AAFC80B205B05DF804FB5C05002008
:1015900008B507210620FFF7D7FFFEF72BFF0AA3A8
:1015A000D3E90023FEF790FF0022094BFEF78CFFE2
:1015B0000022084BFEF788FF0022074BFEF784FF4E
:1015C000FFF732FA08BD00BF6666666666660A40C7
:1015D00000002640000059400000303F4FF0E0225C
:1015E00010B50024D2F8FC3D43F08073C2F8FC3DF6
:1015F000074B1A685C6042F001021A6002F002FABE
:10160000044BB0FBF3F0044B1860204610BD00BF44
:10161000001000E040420F000C010020054B10B507
:101620005C6802F0EFF94FF47A73B0FBF3F0B4FBAF
:10163000F0F010BD001000E070B50446FFF7EEFFBB
:101640000026054602F0DEF94FF47A723346B0FB0D
:10165000F2F200214FF0FF30FFF778FD844276EB85
:101660000103B8BF174B4FF47A76BCBF1B78E41860
:1016700002F0C8F90023B0FBF6F200214FF0FF3072
:10168000FFF764FD2C44A04271F100030ADA02F076
:10169000B9F90023B0FBF6F24FF0FF310120FFF75C
:1016A00055FD0444AC4204D9FFF7B8FFA042FBD378
:1016B00070BDFFF7B3FFA042FBD8FFF7AFFFA0421A
:1016C000FBD3F5E72000002008B54FF0E0231A69AE
:1016D00022F004021A611A6922F002021A6102F071
:1016E00091F9074BB0FBF3F0064B80B21880C0EBCA
:1016F000401300EB8300044BC000188008BD00BFFE
:1017000000127A0012010020100100207047000032
:101710000B4B00221B8858434FF0E02358619A611D
:101720001A6942F001021A611A6902F00112012AD3
:10173000FAD01A6922F001021A6100229A617047F8
:101740001001002003280BD004284FF000030DD017
:1017500002280DD14FF08042506A536200B27047A8
:101760000022044B586A5A6200B27047024AF3E7FB
:1017700018467047000400400008004038B51C4C73
:101780004FF400716368204623F0F00363606368E0
:10179000012243F03003636001F07EFF4FF40071DB
:1017A000204601F073FF08B9002038BD01224FF434
:1017B0008071204601F070FF0120FFF7A7FF002293
:1017C0004FF40071204601F067FF4FF4007120468E
:1017D00001F05CFF05460028E6D10120FFF796FFE7
:1017E00020462A464FF4807101F056FF0120DCE7C5
:1017F000000C014010B5144C00226368204623F011
:10180000F003636063684FF4807143F030036360FA
:1018100001F042FF00224FF40071204601F03CFF2E
:101820000120FFF773FF204601224FF4807101F081
:1018300033FF204601224FF4007101F02DFFBDE877
:1018400010400120FFF762BF000C014010B51B4C97
:10185000012263684FF4007123F0F0036360636852
:10186000204643F08003636001F016FF0120FFF77C
:101870004DFF204601224FF4807101F00DFF012041
:10188000FFF744FF33244FF400710C4801F0FEFED3
:10189000024630B909484FF4807101F0FDFE012085
:1018A00006E0013C14F0FF0403D1FFF7A3FF20463C
:1018B00010BD0120FFF72AFFE5E700BF000C014043
:1018C00010B5144C002220464FF4807101F0E4FE64
:1018D0006368002223F0F003636063684FF40071D3
:1018E00043F030036360204601F0D6FE0120FFF78D
:1018F0000DFF01224FF48071204601F0CDFE012042
:10190000FFF704FF2046BDE8104000224FF480712D
:1019100001F0C2BE000C014010B5144C002220465C
:101920004FF4807101F0B8FE6368012223F0F003E8
:10193000636063684FF4007143F0300363602046D6
:1019400001F0AAFE0120FFF7E1FE01224FF48071B1
:10195000204601F0A1FE0120FFF7D8FE2046BDE899
:10196000104000224FF4807101F096BE000C01403F
:1019700070B51B4C05466368002223F0F0036360DA
:1019800063684FF4807143F030032046636001F0D8
:1019900083FE08262B064CBF012200224FF4007163
:1019A000204601F079FE0120FFF7B0FE01224FF43E
:1019B0008071204601F070FE0120FFF7A7FE002293
:1019C0004FF48071204601F067FE013E0120FFF7D1
:1019D0009DFE6D0016F0FF06EDB2DBD170BD00BFBD
:1019E000000C0140F8B504460F4615461E46FFF7A9
:1019F000C5FE48B1600000F0FE00FFF7B9FFFFF739
:101A000025FF18B9FFF7F6FE012010E03846FFF772
:101A1000AFFF0024FFF71AFFA54205DD305DFFF799
:101A2000A7FFFFF713FF18B9FFF7E4FE0020F8BD8A
:101A30000134F1E7F8B5074608260024184D6B6815
:101A400023F0F0036B606B6843F080036B6000224F
:101A50004FF48071284601F01FFE0220FFF756FE6A
:101A60004FF480712846012201F016FE64004FF405
:101A700000712846E4B201F009FE08B10134E4B275
:101A80000220013EFFF742FE16F0FF06DFD11FB134
:101A9000FFF716FF2046F8BDFFF73EFFFAE700BF4D
:101AA000000C0140F8B505460E4614461F46FFF7E8
:101AB00065FE48B16D00EDB22846FFF759FFFFF70C
:101AC000C5FE18B9FFF796FE012010E03046FFF77B
:101AD0004FFFFFF7BBFEFFF751FE681CC0B2FFF7D8
:101AE00047FFFFF7B3FE1CB9FFF784FE2046F8BDA1
:101AF000012C0CBF00200120FFF79CFF013C387037
:101B0000E4B20137EFE738B504460D46FFF736FE7D
:101B10002046FFF72DFFFFF799FE2846FFF728FF25
:101B2000FFF794FEFFF72AFE601CC0B2FFF720FF0C
:101B3000FFF78CFE0020FFF77DFF0446FFF75AFEFB
:101B4000204638BDF8B507460E4615461C46FFF739
:101B500015FE3846FFF70CFFFFF778FE3046FFF71B
:101B600007FFFFF773FE2544AC4203D1FFF742FEA7
:101B70000120F8BD14F8010BFFF7FAFEFFF766FE2F
:101B8000F2E710B51446FFF7BEFF2070012010BD2C
:101B900007B58DF807200DF107030122FFF7D2FFEB
:101BA00003B05DF804FB2DE9F0411C4690469DF81A
:101BB000185006460F46FFF7A6FFC4F108029540ED
:101BC000EDB2C8F107021541FF22A4EB0804073467
:101BD00008F1010842FA04F402FA08F22243024032
:101BE0002A4339463046BDE8F041D2B2FFF7D0BFB4
:101BF0002DE9F341904601241F460DF107020546E9
:101C00000E46FFF7BEFF04FA08F252B29DF80740F5
:101C100057B12243D2B2314628468DF80720FFF74C
:101C2000B7FF02B0BDE8F08124EA0202F3E700004A
:101C30002DE9F04120210446284801F027FD284DD8
:101C400020BB2B8801339BB2202124482B8001F03C
:101C50001DFD244F3B781843C0B208B901233B70E7
:101C6000DFF88480214E98F800308BB93A78012A49
:101C700001BF337888F800200133337030780228B0
:101C800006D100231A4A3370138010E00023DBE7EB
:101C90002021124801F0FAFC012808BF0023307807
:101CA00004BF3B7088F80030012802D00020BDE856
:101CB000F0810F4A29881388A7B201339BB2A3424F
:101CC000138004D98F4202D900233370DCE78F429E
:101CD000ECD2002030701080E9E700BF000801401E
:101CE000140100201F0100201A0100201E01002005
:101CF0001C01002038B50E4C0E4D23883BB100234B
:101D00002B8000202388012B08BF20800FE020219A
:101D1000094801F0BBFC02460028F0D12B880133B2
:101D20009BB2C82B2B80ECD901202A80208038BDA3
:101D300016010020180100200008014070B50A4675
:101D4000044601B101224FF40041124801F0A4FC05
:101D50000825114E002220210F4801F09DFC23068A
:101D60004CBF012200221021304601F095FC013DBC
:101D700001222021304601F08FFC640015F0FF05A0
:101D8000E4B2E7D1BDE8704001224FF400410148C0
:101D900001F082BC00080140000C014070B5B02485
:101DA0000E4E00212046FFF7C9FF00210846FFF72D
:101DB000C5FF00211020FFF7C1FF002516F83500F0
:101DC00001210135FFF7BAFF802DF7D10134E4B2CC
:101DD000B82C06F10106E4D170BD00BF200100203F
:101DE000002310B41C4607480022C11801F83240F5
:101DF0000132802AFAD10133082BF5D110BCFFF74C
:101E0000CDBF00BF20010020030630B513D43F2909
:101E100011D8012301F00705094CC908C1F10701D8
:101E2000C5F10705C9B204EBC00003FA05F5435C30
:101E300012B12B43435430BD23EA0503FAE700BF38
:101E4000200100202DE9F74F4FF00C0A814688460B
:101E50000C4600261F46203A1B4BD2B203EB02135E
:101E600000931A4B9DF830B00AFB02330193B7423E
:101E700002D103B0BDE8F08F0C2F0CBF019B009B7B
:101E80009D5D04F108035FFA83FA2B0658BFBBFA85
:101E90008BF2214604F101044CBF5A4652094846D0
:101EA000E4B2FFF7B1FFA4EB08026D00BA42EDB255
:101EB00007D1C24609F101005FFA80F954460136A4
:101EC000D5E7A245E1D1F9E7ECB5000878B1000803
:101ED0002DE9F04F002507468B46A9464FF00A082A
:101EE00085B09DF838A003925E1E4FEA5A02029216
:101EF000F4B2FF2C29D105B0BDE8F08F08FB02F247
:101F00000CF1FF3C5FFA8CFCBCF1FF0FF6D1039B98
:101F1000B3FBF2F2B2FBF8FC08FB1C225FFA82FC76
:101F2000B9F1000F16D1AE4214DD8AB90123202287
:101F30000093534638465946FFF784FF029B013C05
:101F4000F8180135C7B2E4B2D3E7A4460122D7E7B7
:101F50004FF0010901230CF130020093D2B2534635
:101F6000E8E7F7B504460D460127561E16F8013F6F
:101F70000BB903B0F0BD7A2C82BF1035EDB200244E
:101F80003A2D03D90025FFF72BFF2C46009720465A
:101F90000C23294632780834FFF754FFE4B2E5E712
:101FA00010B53B4C00220821204601F075FB64204F
:101FB000FFF742FB01222046082101F06DFB0021C2
:101FC000AE20FFF7BBFE0021D520FFF7B7FE0021B2
:101FD0005020FFF7B3FE0021A820FFF7AFFE00213D
:101FE0003F20FFF7ABFE0021D320FFF7A7FE002123
:101FF0000846FFF7A3FE00214020FFF79FFE0021C7
:102000008D20FFF79BFE00211420FFF797FE002193
:102010002020FFF793FE00210220FFF78FFE002112
:10202000A120FFF78BFE0021C020FFF787FE0021D3
:10203000DA20FFF783FE00211220FFF77FFE002148
:102040008120FFF77BFE0021EF20FFF777FE0021C4
:10205000D920FFF773FE0021F120FFF76FFE00216A
:10206000DB20FFF76BFE00213020FFF767FE002129
:10207000A420FFF763FE0021A620FFF75FFE0021EA
:10208000AF20FFF75BFEBDE81040FFF7A9BE00BF21
:10209000000C01402DE9F0477D4B86B0834240F0B3
:1020A000F3807C4B7C4A1B787C4D592B137015D1E7
:1020B00002217B4A1170A3F14202022A4AD800226F
:1020C00078490A7078490A7078490A700121784A7B
:1020D00011707B2B31D101222A700EE0582B1DD0BC
:1020E0000A2B49DD5A2B1CD100226E490A706E4919
:1020F0000A706E490A706E490A702A78012A52D114
:102100006C496D480A78835401320A700122614992
:102110005F4806B0BDE8F04702F0FBBE0121604A0F
:10212000C8E7412B0DD101215E4A117000225E49A2
:102130000A705E490A705E490A707D2BDDD1022269
:10214000CAE7452BB7D10022012056490A705649EB
:102150000870EEE7A3F14602022A4FF0000298BF92
:10216000012050490A7050490A70504994BF0870C4
:102170000A704F490A70ACE7ABD00121484A117090
:1021800043B9484A1370484A1370484A1370484A82
:102190001370B2E7012BC6D0052BD4D09A1E022AA9
:1021A0008DD99A1FD8E7022AB0D1434FDFF80481B6
:1021B000FB78424E502B0FD10122414B1A70002266
:1021C0000021404B3C481A603222297088F80010E8
:1021D000317006F061FB99E77B78232BEFD098F8FC
:1021E0000090DFF8E0A086F800903478032C09D83E
:1021F0007A78344B303A052AE1D8DFE802F03236FB
:10220000393C3F423B1913F8010C3038FEF7F2F825
:10221000CDE90001A9EB0400FEF7ECF802460B46FD
:102220000020294907F042FC02460B46DAF800007C
:10223000CDE90423FEF7F0F8DDE90423CDE902013E
:10224000DDE90001FEF740F902460B46DDE9020137
:10225000FDF784FFFEF710FC013CCAF80000347063
:10226000C3E71A68194B1A60A9E71A68184BFAE70E
:102270001A68184BF7E71A68174BF4E71A68174BF8
:10228000F1E71A68164BEEE706B0BDE8F08700BF2D
:1022900034070020580500205705002024050020A1
:1022A000090000209E0500209C05002098050020C4
:1022B0009905002059050020250500205A05002019
:1022C000B00500202005002000002440040000206C
:1022D0000000002014000020100000200C0000204E
:1022E000B40500201FB51148114A002301240260E3
:1022F0004FF46022CDE901330393836003730375C8
:10230000C2614360046100F02FFF08B100F070F972
:102310000623CDE901340023044801A9039300F00A
:10232000DFFD08B100F064F904B010BD5C050020C9
:102330000024014010B5044686B01022002102A8F6
:1023400006F0AAFA2268104B9A421BD103F56C439F
:102350009A690E4842F400729A619A6902A902F4DD
:1023600000720092009A9A6942F004029A619B6995
:10237000402203F004030193019B0323CDE90223D0
:1023800001F0AAF806B010BD002401400008014089
:1023900010222DE9F04188B00DEB0200002106F07B
:1023A0007BFA384B384D9A69384E42F020029A61D8
:1023B0009A69284602F020020192019A9A6948F22D
:1023C000100142F004029A619A69012402F00402A9
:1023D0000292029A9A69002742F008029A619B6968
:1023E000012203F008030393039B01F055F93046E3
:1023F000012247F23A3101F04FF9002230464FF402
:10240000004101F049F94FF0030848F21003284653
:1024100004A9CDE90434CDE9067801F05DF8202364
:10242000284604A9CDE90437069401F055F847F28F
:102430003A33304604A9CDE90434CDE9067801F0F9
:102440004BF84FF4004306970227304604A9CDE924
:102450000434079701F040F84FF480520C4B2846A3
:1024600004A9CDE90423069401F036F82246394642
:10247000282000F079FF282000F0A8FF08B0BDE870
:10248000F08100BF0010024000080140000C014034
:102490000000111010B594B0142200210CA806F011
:1024A000FBF9142200210DEB020006F0F5F91022D1
:1024B000002101A806F0F0F902244FF48033012234
:1024C000CDE91143CDE90A234FF4E0130AA80E9297
:1024D000139301F0FBF808B172B6FEE70F23CDE9C4
:1024E00005344FF480630790CDE90830214605A8F4
:1024F00001F0C2FA08B172B6FEE74FF4004301A83A
:102500000194039301F074FB08B172B6FEE714B0B6
:1025100010BD000008B500F0F1FBFFF7BBFFFFF7AF
:1025200037FFFFF7DFFE00F0B9FA00F04FF900F0D7
:102530007DF900F0C7F900F00DFB00F027FB282023
:1025400000F052FFFFF7C0F81F4800F08BFE00219B
:102550001E4802F035F90C211C4802F031F93C21EB
:102560001B4801F0D0FC3C211A4801F0CCFC0821AA
:10257000194802F027F9184801F09AFCFFF710FDFE
:1025800003F062F803F076F8144800F033F8012203
:102590001349124802F0BDFC282000F017FF114D2E
:1025A000114C2B7863B906F04BF805F097FE012328
:1025B000002223700D4B1A702378002BFCD1F0E71A
:1025C00006F0F6F8F3E700BF5C050020D005002018
:1025D00018060020A806002060060020340700200E
:1025E000580500209A050020C5050020C4050020DC
:1025F00072B6FEE7044B02221860044B18680023F1
:102600008068194606F0DEB9C80500208800002061
:10261000022808B505D906F005F909230360002052
:1026200008BD0120FCE700000138012870B50D4607
:10263000144618D80F4B1E6801F0E4F94FF47A7273
:102640000023B0FBF2F200214FF0FF30FEF77EFDD9
:10265000A2B203462946304602F030FA002818BFDD
:102660000524204670BD06F0DDF809234FF0FF3445
:102670000360F6E7C8050020022808B506D906F071
:10268000D1F8092303604FF0FF3008BD0020FCE7BC
:1026900008B506F0C7F8092303604FF0FF3008BD06
:1026A00070B50D460446C0B90F4B1E6801F0AAF97B
:1026B0004FF47A722346B0FBF2F200214FF0FF3064
:1026C000FEF744FD012203462946304602F04BFA4C
:1026D00000280CBF0120052070BD06F0A3F80923D7
:1026E00003604FF0FF30F7E7C8050020022808B567
:1026F00004D84FF400534B60002008BD06F092F858
:1027000009230360F8E70000104B07B59A6905201C
:1027100042F001029A619A6902F001020092009A65
:10272000DA6942F08052DA61DB6903F08053019389
:10273000019B00F007FE064A536823F0E06343F074
:102740000073536003B05DF804FB00BF001002404B
:1027500000000140FEE7FEE7FEE7FEE7FEE7704708
:102760007047704700F0DCBA014801F040BC00BF80
:1027700060060020014802F0ABBA00BF3407002019
:102780004FF4805000F096BF0B4A0346116810B515
:1027900009B90A491160106809490A4C0344091B28
:1027A0008B4206D906F03EF80C2303604FF0FF3051
:1027B00010BD1360FCE700BFCC050020800800209E
:1027C00000500020000400007047000010B58CB0DD
:1027D0001C22002104A806F05FF800244FF080437B
:1027E00011480122C0E900344FF6FF73C0E90334F9
:1027F000032303930A2303A9CDE901448460846180
:102800000592079309920B9301F050FD08B1FFF771
:10281000EFFE054801A9CDE9014402F041F808B1F5
:10282000FFF7E6FE0CB010BD1806002010B500241E
:102830008AB01022002102A806F02EF810222146AC
:1028400006A8CDE9004406F027F847231B481C4A98
:102850008460C0E900234FF6FF738461C0E903344C
:1028600001F0A0FC08B1FFF7C3FE4FF480531348FA
:1028700002A9029301F0B0FE08B1FFF7B9FE0F48BC
:1028800001F0E8FC08B1FFF7B3FE002469460B48ED
:10289000CDE9004402F004F808B1FFF7A9FE0123D6
:1028A0000822064806A9CDE907340694099401F0E8
:1028B00005FE08B1FFF79CFE0AB010BD60060020BF
:1028C0000004004010B500248CB02022002104A890
:1028D00005F0E2FF1148124B0A22C0E900344FF61E
:1028E000FF73C0E9033403230393012303A9CDE954
:1028F00001448460846105930792099301F0D6FC3A
:1029000008B1FFF775FE054801A9CDE9014401F0C2
:10291000C7FF08B1FFF76CFE0CB010BDA806002081
:10292000000800400268084B82B09A420AD103F5C1
:1029300064439A6942F400629A619B6903F40063FC
:102940000193019B02B07047002C0140102210B58A
:10295000044688B000210DEB020005F09DFF2368BE
:10296000B3F1804F1BD103F50433DA69194842F003
:102970000102DA61DA6904A902F001020092009A08
:102980009A6942F004029A619B6903F0040301937F
:10299000019B0323049300F09FFD08B010BD0E4A75
:1029A0009342FAD10D4B0E48DA6904A942F00402B1
:1029B000DA61DA6902F004020292029A9A6942F03C
:1029C00008029A619B6903F008030393039BC023E9
:1029D0000493E0E7000801400008004000100240B6
:1029E000000C014010B5044686B01022002102A858
:1029F00005F052FF2268134B9A4221D1012403F5BE
:102A00000333DA69104842F00202DA61DA6902A996
:102A100002F002020092009A9A6942F008029A615A
:102A20009B69029403F008030193019B00F054FD9D
:102A30001D202246214600F097FC1D2000F0C6FC18
:102A400006B010BD00040040000C014010B5044663
:102A500086B01022002102A805F01EFF22680D4B4F
:102A60009A4214D103F564439A690B4842F0040278
:102A70009A619B694FF4106203F004030193019B78
:102A8000022302A9CDE90223059300F025FD06B03B
:102A900010BD00BF002C01400008014010B500240B
:102AA00092B01C22214603A8CDE9014405F0F4FEB2
:102AB000202221460AA805F0EFFE2448244BC0E955
:102AC0000544C0E9003441F61F438460C0E9033483
:102AD00001F094FB08B1FFF78BFD1C4801A9CDE97B
:102AE000014401F0DDFE08B1FFF782FD0022602302
:102AF000164803A9CDE90332CDE90522CDE9072225
:102B0000099201F055FC08B1FFF772FD0C220F4845
:102B10000DEB020101F04CFC08B1FFF769FD002349
:102B20004FF4005209480AA9CDE90A33CDE90C3324
:102B30000E930F92119301F0E1FE08B1FFF758FDDB
:102B40000248FFF783FF12B010BD00BFD005002080
:102B5000002C014008B54FF4E1330A480A4AC0E9A5
:102B6000002300230C22C0E90233C0E905230361DE
:102B7000C36101F075FF18B1BDE80840FFF738BD2B
:102B800008BD00BFF00600200038014008B54FF432
:102B900016530A480A4AC0E9002300230C22C0E960
:102BA0000233C0E905230361C36101F059FF18B185
:102BB000BDE80840FFF71CBD08BD00BF340700207A
:102BC00000480040102210B5044688B00DEB02000A
:102BD000002105F061FE2368304A934229D1304B31
:102BE0004FF400709A6904A942F480429A619A698C
:102BF0004FF4806402F480420092009A9A6942F095
:102C000004029A619B6903F004030193019B022370
:102C1000CDE9040303232348079300F05DFC002360
:102C2000204804A9CDE90443069300F055FC08B000
:102C300010BD1D4A9342FAD1194B04A9DA691B4809
:102C400042F48022DA61DA6902F480220292029A66
:102C50009A6942F008029A619B694FF4806203F01E
:102C600008030393039B0223CDE904230323079363
:102C700000F032FC00234FF400610C48CDE904134E
:102C800004A9069300F028FC01222720114600F039
:102C90006BFB272000F09AFBC9E700BF003801401A
:102CA000001002400008014000480040000C0140B4
:102CB0000C480D490D4A002302E0D458C450043397
:102CC000C4188C42F9D30A4A0A4C002301E013606D
:102CD0000432A242FBD3FFF777FD05F0A9FDFFF711
:102CE00019FC704700000020EC00002020CC0008F8
:102CF000EC00002080080020FEE70000074A08B52D
:102D00001368032043F01003136000F01BFB002046
:102D1000FEF764FCFFF7F8FC002008BD002002402D
:102D2000034A044B11681B780B441360704700BFC3
:102D300078070020200000202DE9F74300260446F4
:102D40000D460196FEF76AFC236807469A68D1058E
:102D500009D50120A36A84F8246043F02003A3620C
:102D600003B0BDE8F0835A68D2054CD4DB6A13F493
:102D7000700F48D14FF47A7823681E6816F0020667
:102D80001FD06FF0120322681360A36A43F400732C
:102D9000A362936803F46023B3F5602F40F08D8045
:102DA000207B002840F08980A36A23F48073A3620B
:102DB000A36ADB0400F18180A36A43F00103A362EC
:102DC000CEE700F01FFE3346B0FBF8F200214FF0D3
:102DD000FF30FEF7BBF98E4208BF8542CCD065B903
:102DE00023681B6813F00203C6D1A26A42F00402F2
:102DF000A262032084F82430B2E7FEF70FFCC01B68
:102E0000A842EDD8B8E72E4B02201E6800F06AFFFA
:102E100023682C4A1969B6FBF0F611422A4A2CD1D4
:102E2000D8682A49084228D11969114236D1DA688E
:102E3000274B1A4214BF292314234FF000084FF4E4
:102E40007A795E43019BB3429BD200F0DBFD002305
:102E5000B0FBF9F200214FF0FF30FEF777F988451B
:102E600008BF854225D0FDB9019BB34221D2A36A98
:102E700043F00403A3620023BBE71969114203D1A5
:102E8000D968134A11420BD01969124A114209D16B
:102E9000DB68134214BFFC235423CEE72923CCE77D
:102EA0005423CAE7FC23C8E7FEF7B8FBC01BA842BF
:102EB000DAD8019B01330193C4E7002050E700BF3B
:102EC0001C00002024499224922449122449920093
:102ED00092244900499224000368D86C704700008E
:102EE000002373B5019390F824300446012B6CD075
:102EF000012380F824304D680268062D086805EB30
:102F0000850322D81F26556B053B9E4025EA060502
:102F100000FA03F32B43536309288B6800EB400549
:102F20004FF0070129D9D6681E3DA94026EA0101C4
:102F3000AB400B43D360A0F11003012B25D9002037
:102F4000002384F8243002B070BD0C2D4FF01F0513
:102F500009D8166B233B9D4026EA050500FA03F3CA
:102F60002B431363D8E7D66A413B9D4026EA05050B
:102F700000FA03F32B43D362CEE71069A94020EA9D
:102F80000101AB400B431361D9E7114B9A4216D1B3
:102F900093681B02D3D49368102843F40003936012
:102FA000CDD10C4B0C4A1B68B3FBF2F30A225343FE
:102FB0000193019B002BC2D0019B013BF8E7A36A60
:102FC000012043F02003A362BAE70220BBE700BF61
:102FD000002401401C00002040420F00806A70471E
:102FE000002337B50193036804469A68D20702D5D7
:102FF000002003B030BD9A6842F001029A60144B81
:10300000144A1B68B3FBF2F30193019BE3B9FEF78B
:1030100005FB054623689B68DB07E9D4FEF7FEFA4B
:10302000401B0228F6D923689B6813F00103F1D1F5
:10303000A26A012042F01002A262E26A84F82430FF
:1030400042F00102E262D4E7019B013BDCE700BFF2
:103050001C00002040420F0010B590F824300446B8
:10306000012B54D0012380F82430FFF7B9FF00284A
:1030700049D1A36A274A23F4407323F0010343F4A0
:103080008073A3622368934204D123494A6812F4EF
:10309000702F2ED1A26A22F48012A2625A685205C1
:1030A00041BFA26A22F4405242F48052A262A26A54
:1030B00012F480521CBFE26A22F00602E262002291
:1030C00084F824206FF002021A609A6802F46022E9
:1030D000B2F5602F13D10F4A934205D1A2F5806259
:1030E000526812F4702F0AD19A6842F4A0029A60D2
:1030F00010BDA26A42F48012A2624A68CFE79A68C1
:1031000042F48012F3E7002384F82430F0E7022031
:10311000EEE700BF002801400024014038B50368F5
:1031200004469A68D10701D4002038BD9A6822F07D
:1031300001029A60FEF772FA054623689B68DB0776
:10314000F2D5FEF76BFA401B0228F6D923689B687C
:10315000DA07F2D5A36A012043F01003A362E36A01
:1031600043F00103E362E0E7F8B5044600286ED0BF
:10317000836A23B9C36280F82430FFF7DBF8204666
:10318000FFF7CCFFA36A13F0100362D1002860D1CF
:10319000A26AE569616822F4885222F0020242F0D4
:1031A00002022943A568A262227BB5F5807F41EA2D
:1031B000420137D0012D14BF00274FF48077267DC0
:1031C000012E06D182BBA269013A47EA423646F493
:1031D00000672268B5F5807F566826F4694646EA9E
:1031E0000706566097681D4E06EA070646EA01067E
:1031F000966001D0012D02D12369013B1B05D56AE0
:1032000025F470052B43D3629268154B1340994205
:1032100013D10023E362A36A23F0030343F0010305
:10322000A362F8BD2F46CAE7A26A42F02002A2625A
:10323000E26A42F00102E262CBE7A36A23F01203E2
:1032400043F01003A362E36A43F00103E362012049
:10325000E7E7A36A43F01003A362F8E7FDF7E1FF95
:10326000FE0E1FFF002373B5019390F8243004462F
:10327000012B62D0012380F82430FFF74FFF054671
:10328000002832D1A36A022023F4885323F00203DA
:1032900043F00203A3622A4B1E6800F023FDB6FB35
:1032A000F0F676000196019B1BBB2046FFF798FEC7
:1032B0002268936843F008039360FEF7AFF906466F
:1032C00023689A68110718D49A6842F004029A6039
:1032D000FEF7A4F9064623689B685B0723D4A36A1C
:1032E00023F0030343F00103A362002384F8243096
:1032F00016E0019B013B0193D5E7FEF78FF9801B98
:103300000A28DDD923689B681807D9D5A36A012547
:1033100023F0120343F01003A362002384F8243047
:10332000284602B070BDFEF779F9801B0A28D2D971
:1033300023689B685A07CED5E8E70225F0E700BF6F
:103340001C00002007490302CA6803F4E06322F46A
:10335000E0621204120C134343F0BF6343F40033E2
:10336000CB60704700ED00E0164B30B5DC68C4F36D
:103370000224C4F10703251D042B28BF0423062DB6
:103380004FF0FF3598BF002405FA03F388BF033CD4
:1033900021EA0303A34005FA04F422EA0402002808
:1033A00043EA0203ACBF00F16040074A4FEA03134F
:1033B000DBB2ABBF00F5614000F00F0080F80033D6
:1033C000135430BD00ED00E014ED00E0002808DBF0
:1033D0000123420900F01F0003FA00F0014B43F8FB
:1033E0002200704700E100E000280DDB01224309C4
:1033F00000F01F0002FA00F0044A203342F82300D4
:10340000BFF34F8FBFF36F8F704700BF00E100E045
:1034100090F82130022B06D004238363002380F828
:1034200020300120704703681A6822F00E021A60EB
:103430001A6822F001021A600123D0E90F218B40A3
:1034400053604FF4807303840020704708B590F8F0
:103450002130022B03D004238363012008BD0368BD
:103460001A6822F00E021A601A6822F001021A602D
:10347000174A93421CD0143293421BD01432934209
:103480001AD0143293421AD0143293421AD0143202
:1034900093420CBF4FF480134FF080730D4A53607A
:1034A0004FF480730384436B7BB198470020D5E7CA
:1034B0000123F3E71023F1E74FF48073EEE74FF4B5
:1034C0008053EBE74FF48033E8E71846C6E700BFC8
:1034D00008000240000002402DE9F74F0022164686
:1034E000644F654BDFF894C1DFF894E10D6835FA5D
:1034F00006F402D103B0BDE8F08F4FF0010808FADE
:1035000006F805EA080438EA05057BD14D68032D65
:1035100007D8013D022D00F28880DFE805F0969B78
:10352000A100122D00F099806ED8112D00F08F802F
:10353000FF2C98BF82464FF00F0988BF00F1040AA4
:103540004FEA8605DAF8008088BF203D09FA05FBBE
:1035500028EA0B0802FA05F548EA0505CAF8005002
:10356000D1F804A01AF0805F4CD0BD6926F00308A2
:1035700045F00105BD61BD6908F1804805F0010510
:10358000019508F5803806F0030B019D4FEA8B0B7F
:10359000D8F8085009FA0BF925EA0909394DA8426B
:1035A00062D005F58065A84260D005F58065A84227
:1035B0005ED005F58065A8420CBF0325042505FAF9
:1035C0000BF545EA0905C8F808501D681AF4803F54
:1035D00014BF2543A5431D605D681AF4003F14BF66
:1035E0002543A5435D609D681AF4801F14BF2543E1
:1035F000A5439D60DD681AF4001F14BF2C4325EA23
:103600000404DC60013671E7DFF87C904D450CD096
:1036100017D8A9F580194D4507D009F570294D45F2
:1036200003D0A9F580194D4582D18A68D2B1012A0B
:1036300008BFC0F810804FF0080218BFC0F814800F
:1036400076E76545F1D07545EEE7CA6870E7CA6868
:1036500004326DE7CA6808326AE7CA680C3267E765
:10366000002265E7042263E70025A8E70125A6E715
:103670000225A4E7001002400004014000003110C0
:103680000000321000080140000022108368194237
:1036900014BF0120002070470AB10161704709047E
:1036A000FBE7C36801EA030221EA030141EA0241A0
:1036B00001617047044A08B55169014202D0506166
:1036C00002F0EEFE08BD00BF000401402DE9F34109
:1036D000054638B30368DB0710D42B689F075ED418
:1036E0002B68190700F195802B685A0700F1C180FB
:1036F000E869002840F02C81002029E0904C6368A4
:1037000003F00C03042B07D0636803F00C03082BB1
:103710000AD16368DE0307D523689C03DDD56B6897
:10372000002BDAD1012013E06B68B3F5803F12D192
:10373000236843F480332360FDF770FF0646236857
:103740009803CAD4FDF76AFF801B6428F7D90320C9
:1037500002B0BDE8F0819BB9236823F48033236075
:10376000236823F480232360FDF758FF064623686F
:103770009903B2D5FDF752FF801B6428F7D9E6E71D
:10378000B3F5A02F236803D143F480232360CFE750
:1037900023F480332360236823F48023CBE7684C31
:1037A000636813F00C0F07D0636803F00C03082B59
:1037B00010D16368DA030DD423689B0702D52B6907
:1037C000012BAFD123686A6923F0F80343EAC203EF
:1037D000236085E72A695B4B6AB101221A60FDF715
:1037E0001DFF064623689F07ECD4FDF717FF801BDB
:1037F0000228F7D9ABE71A60FDF710FF06462368E9
:1038000098077FF56DAFFDF709FF801B0228F6D9F9
:103810009DE7AA694A4E4B4BE2B10122C3F88024CE
:10382000FDF7FCFE0446736A9B070DD54FF4FA5270
:10383000454B1B68B3FBF2F3019300BF019B5A1E7B
:103840000192002BF9D14FE7FDF7E8FE001B02289B
:10385000E9D97CE7C3F88024FDF7E0FE0446736AEB
:103860009F077FF541AFFDF7D9FE001B0228F6D96F
:103870006DE7334CE369D80024D40127E36943F0B2
:103880008053E361E36903F080530093009B2F4E64
:103890003368D90518D5EB68012B26D1236A43F08C
:1038A00001032362FDF7BAFE41F288380646236A17
:1038B0009B073FD5002F3FF41BAFE36923F08053F4
:1038C000E36115E70027E2E7336843F48073336070
:1038D000FDF7A4FE80463368DA05DCD4FDF79EFED2
:1038E000A0EB08006428F6D931E7ABB9236A41F2AE
:1038F000883823F001032362236A23F00403236240
:10390000FDF78CFE0646236A9807D3D5FDF786FEA1
:10391000801B4045F7D91AE7052B236A03D143F0F2
:1039200004032362BAE723F001032362236A23F02E
:103930000403B6E7FDF772FE801B4045B7D906E7E2
:1039400000100240000042421C00002000700040B5
:103950002A4C636803F00C03082B3ED00022284B4E
:1039600002281A662CD1FDF759FE064623689901F4
:1039700020D42B6AB3F5803F05D16268A96822F490
:1039800000320A436260696A62680B4322F474126F
:103990001343012263601A4B1A66FDF73FFE05468A
:1039A00023689A013FF5A8AEFDF738FE401B0228B8
:1039B000F6D9CCE6FDF732FE801B0228D6D9C6E642
:1039C000FDF72CFE054623689B017FF595AEFDF7BC
:1039D00025FE401B0228F6D9B9E601283FF4B8AE0F
:1039E00063682A6A03F4803191427FF49BAE6A6A6D
:1039F00003F4701393423FF47FAE93E6001002404D
:103A00000000424230B5184B87B002AC03F11005FC
:103A1000224618685968083303C2AB421446F7D1EE
:103A200040F201231149ADF804304B6803F00C0259
:103A3000082A17D1C3F3834218326A44DB0312F811
:103A4000100C0CD54B680A4AC3F34043504318335B
:103A50006B4413F8143CB0FBF3F007B030BD054BDA
:103A60005843FAE70248F8E7F4BB000800100240A8
:103A700000127A0000093D002DE9F0410D46044690
:103A800010B90120BDE8F081444A136803F0070330
:103A90008B4228D321688E0730D4CA0743D43F4ACB
:103AA000136803F00703AB4265D822683C4D12F05F
:103AB000040F6CD1130706D56B68226923F4605399
:103AC00043EAC2036B60FFF79DFF6B68354AC3F39F
:103AD0000313D35CD840344B1860344B1868FDF79F
:103AE0007DFD0020CEE7136823F007030B4313602E
:103AF000136803F007038B42C3D1CBE7284B11F0C7
:103B0000040F1EBF5A6842F4E0625A60080742BFC1
:103B10005A6842F460525A605A68A06822F0F00273
:103B200002435A60B9E762681D4E012A33681AD110
:103B300013F4003FA5D0736841F2883823F00303E3
:103B400013437360FDF76AFD07467368626803F00C
:103B50000C03B3EB820FA2D0FDF760FDC01B404504
:103B6000F3D903208EE7022A02D113F0007FE1E7A8
:103B700013F0020FDEE7136823F007032B431360F3
:103B8000136803F00703AB427FF47BAF8DE76B68EC
:103B9000E16823F4E0630B436B608BE70020024095
:103BA00000100240DCBB00081C00002024000020A4
:103BB000044B054A5B68C3F30223D35C034A1068D5
:103BC000D840704700100240ECBB00081C000020E9
:103BD000044B054A5B68C3F3C223D35C034A1068F5
:103BE000D840704700100240ECBB00081C000020C9
:103BF00003682DE9F341D907054620D5364CE36922
:103C0000DA0032D40126E36943F08053E361E369CB
:103C100003F080530193019B304F3B68DB0526D5B1
:103C2000236A13F4407336D1236A6A6823F440731D
:103C3000134323621EB1E36923F08053E3612868D4
:103C4000830706D52449AB684A6822F440421A43E8
:103C50004A6010F010001BD01F4AE968536800202A
:103C600023F480030B43536012E00026D4E73B6843
:103C700043F480733B60FDF7D1FC80463B68D80578
:103C8000CED4FDF7CBFCA0EB08006428F6D90320C6
:103C900002B0BDE8F0816A6802F440729A42C3D073
:103CA00001200F4A236AC2F84004002023F4407127
:103CB000C2F840042162D907B6D5FDF7AFFC41F246
:103CC00088380746236A9A07AED4FDF7A7FCC01BC5
:103CD0004045F7D9DBE700BF00100240007000400C
:103CE00000004242024670B5334B86B002AD03F18C
:103CF00010062C4618685968083303C4B342254699
:103D0000F7D140F20123022AADF8043047D0102A3F
:103D100003D0012A24D0002036E0284A51681068D8
:103D200010F0807030D0C1F3834318336B44C90363
:103D300013F8100C49BF5368214BC3F340431833A9
:103D400041BF6B4413F8141C1E4BB3FBF1F35843F3
:103D500053685B0218D403234000B0FBF3F013E078
:103D600040F20231154A136A1940B1F5817F1FD024
:103D700003F44073B3F5007F08D149F64043506A1D
:103D800010F0020018BF184606B070BDB3F5407FB2
:103D9000C1D110684FF2244310F40030F2E7FFF76E
:103DA00017FF064B5B68C3F3813301335B00D4E735
:103DB0004FF40040E8E700BFF4BB000800100240E9
:103DC00000093D0000127A00036A70B523F0010378
:103DD0000362036A446882690D6822F073022A4311
:103DE0008D6823F002032B430A4DA8420BD1CD6806
:103DF00023F008032B4324F44074D1E905563543DE
:103E000023F004032C43446082614A6842630362E6
:103E100070BD00BF002C0140036A70B523F48073AD
:103E20000362036A4468C2690D6822F073022A4380
:103E30008D6823F4007343EA05230B4DA8420DD18E
:103E4000CD6823F4006343EA052324F44054D1E908
:103E50000556354323F4806344EA05144460C26187
:103E60004A68C263036270BD002C0140036A30B52A
:103E700023F480530362036A4468C2690D6822F424
:103E8000E64242EA05228D6823F4005343EA0533F3
:103E9000064DA84202BF4D6924F4804444EA8514CB
:103EA0004460C2614A680264036230BD002C014074
:103EB00090F83D30012B20D1022380F83D3003687B
:103EC000DA6842F00102DA600D4A93420AD0B3F197
:103ED000804F07D0A2F59432934203D002F580625E
:103EE000934204D19A6802F00702062A03D01A68A6
:103EF00042F001021A60002070470120704700BFA5
:103F0000002C01407047034630B590F83E2090F8F1
:103F10003F0093F8425093F84340D2B2C0B2EDB2A2
:103F2000E4B2C1B9012A45D1012D45D1022283F85D
:103F30003E2083F842201A68116A21F001011162C3
:103F4000116A41F00101002011621A68136843F000
:103F50000103136030BD042911D101282AD1012C9D
:103F6000F8D1022283F83F2083F843201A68116AAF
:103F700021F010011162116A41F01001E3E7012AFA
:103F800018D1012818D1012DE4D1012CE2D102224F
:103F900083F83E2083F83F2083F8422083F84320B3
:103FA0001A68116A21F001011162116A41F00101E0
:103FB0001162DCE70120CDE71046CBE7082910D0DD
:103FC00004D841B1042909D0002070470C29FBD145
:103FD0000368186C70470368586B70470368986BE8
:103FE00070470368D86B7047704770477047036825
:103FF00010B51A69044691070ED5DA6892070BD5F9
:104000006FF002021A61012202779B699B0777D049
:1040100001F02EFD0023237723681A69500710D57D
:10402000DA6851070DD56FF004021A610222227777
:104030009B69204613F4407F68D001F019FD0023EE
:10404000237723681A6912070FD5DA6810070CD591
:104050006FF008021A6104222277DB692046990773
:104060005AD001F005FD0023237723681A69D20690
:1040700010D5DA68D0060DD56FF010021A6108224B
:104080002277DB69204613F4407F4BD001F0F0FC2F
:104090000023237723681A69D10708D5DA68D20785
:1040A00005D56FF0010220461A6101F035FD236845
:1040B0001A69100608D5DA68110605D56FF0800276
:1040C00020461A6100F041FC23681A69520608D59F
:1040D000DA68500605D56FF0400220461A61FFF7F6
:1040E00085FF23681A69910622D5DA6892061FD5E2
:1040F0006FF020022046BDE810401A6100F024BC99
:10410000FFF772FF2046FFF770FF83E7FFF76CFFB2
:104110002046FFF76AFF92E7FFF766FF2046FFF7AA
:1041200064FFA0E7FFF760FF2046FFF75EFFAFE701
:1041300010BD00001A4A036890420AD0B0F1804FC7
:1041400007D0A2F59432904203D002F580629042EB
:1041500015D14A6823F070031343114A90420AD0E4
:10416000B0F1804F07D0A2F59432904203D002F50F
:104170008062904203D1CA6823F4407313434A69B2
:1041800023F08003134303608B68C3620B68836270
:10419000034B984204BF0B690363012343617047DB
:1041A000002C014010B5044630B390F83D3003F0C8
:1041B000FF021BB980F83C20FEF714FC02232068A4
:1041C00084F83D30211DFFF7B5FF0123002084F85E
:1041D000463084F83E3084F83F3084F8403084F82C
:1041E000413084F8423084F8433084F8443084F815
:1041F000453084F83D3010BD0120FCE710B5044681
:1042000030B390F83D3003F0FF021BB980F83C203A
:10421000FEF788FB0223206884F83D30211DFFF75C
:1042200089FF0123002084F8463084F83E3084F86A
:104230003F3084F8403084F8413084F8423084F8CC
:10424000433084F8443084F8453084F83D3010BD64
:104250000120FCE710B5044630B390F83D3003F080
:10426000FF021BB980F83C20FFF74CFE02232068B8
:1042700084F83D30211DFFF75DFF0123002084F805
:10428000463084F83E3084F83F3084F8403084F87B
:10429000413084F8423084F8433084F8443084F864
:1042A000453084F83D3010BD0120FCE7F8B50D46DF
:1042B000044600284DD090F83D3003F0FF021BB9B2
:1042C00080F83C20FEF742FB0223214684F83D3073
:1042D00051F8040B836823F4804323F007038360C1
:1042E000FFF728FF20682A6886688369A968164353
:1042F000AA6923F4407341EA022123F003030B432C
:1043000023F47C422B69E9691B0143EA0123E96834
:10431000076A0B43296A22F0FC0243EA0133134384
:10432000696927F022026F68866047EA0117836196
:10433000174301230762002084F8463084F83E309A
:1043400084F83F3084F8423084F8433084F83D30BC
:10435000F8BD0120FCE70000036A70B523F01003EC
:104360000362036A446882690D6822F4E64242EA05
:1043700005228D6823F0200343EA05130B4DA84264
:104380000DD1CD6823F0800343EA051324F4406483
:10439000D1E90556354323F0400344EA85044460DF
:1043A00082614A688263036270BD00BF002C0140D5
:1043B00038B590F83C300446012B52D00123082A2E
:1043C00080F83C303CD006D8C2B1042A27D0002067
:1043D00084F83C0038BD0C2AF9D10068FFF746FD8F
:1043E00023680969DA6942F40062DA61DA6922F461
:1043F0008062DA61DA6942EA012230E00068FFF7A0
:10440000E3FC236809699A6942F008029A619A6993
:1044100022F004029A619A690A439A61D7E7006818
:10442000FFF79AFF236809699A6942F400629A616A
:104430009A6922F480629A619A6942EA0122ECE761
:104440000068FFF7E9FC23680969DA6942F00802AD
:10445000DA61DA6922F00402DA61DA690A43DA61C0
:10446000B5E70220B6E7000070B5046A124E24F0EA
:1044700001040462B0428469056A19D0B0F1804F2A
:1044800016D0A6F59436B04212D006F58066B0423A
:104490000ED044F001021B0122F0F002DBB2134304
:1044A00001F00A0125F00A0211438361016270BD27
:1044B00024F003042243EEE7002C0140F8B590F805
:1044C0003C300446012B0E46154679D0012380F876
:1044D0003C30F368006806C975B9FFF7C5FF23686B
:1044E000B1689A6922F00C029A619A690A439A614A
:1044F000002084F83C00F8BD042DB66822D1056A7E
:10450000090125F0100505628769D0F820E027F43D
:10451000407C1D034CEA022C2CF4704CADB22EF002
:10452000A00E01F0A00145EA0C0541EA0E018561EB
:104530000162836923F440638361836943EA062649
:104540008661D5E7082D056A1CD125F480750562C2
:10455000C769056A27F0030717431B010902DBB28D
:1045600027F0F00725F4007501F400711F4329437B
:10457000C7610162C36923F00C03C361C3691E43B1
:10458000C661B5E725F480550562C569076A25F45B
:10459000407545EA02251B03090325F470459BB2CB
:1045A00027F4005701F400512B433943C3610162E2
:1045B000C36923F44063C361C36943EA0626DFE7A6
:1045C000022098E710B584680A4324F47F4442EA45
:1045D00003222243826010BD70B590F83C3004463F
:1045E000012B4FF0020027D0012384F83D00206802
:1045F00084F83C30836823F47F4323F0770383609F
:104600000B68602B4DD032D8402B62D015D8202BB0
:1046100003D009D833F0100208D1826822F070026A
:10462000134343F0070320E0302BF6D00123002092
:1046300084F83D3084F83C0070BD502BF6D14A68B8
:10464000CE68016A056A21F00A0125F001050562BC
:1046500083690A4323F0F00343EA0613836102628D
:10466000836823F0700343F057038360DEE7702B09
:104670000CD0B3F5005FD9D1CB68D1E90121FFF7A8
:10468000A1FF2268936843F4804308E0CB68D1E936
:104690000121FFF797FF2268936843F07703936047
:1046A000C4E74D68CE68016A21F010010162826999
:1046B000036A22F4704223F0A00343EA051342EA9E
:1046C000063282610362836823F0700343F067035C
:1046D000CBE74A68CE68016A056A21F00A0125F035
:1046E0000105056283690A4323F0F00343EA0613D8
:1046F00083610262836823F0700343F04703B4E7E9
:1047000010B50124036A01F01F018C4023EA040361
:104710000362036A8A401A43026210BD10B5044660
:1047200029B990F83E30012B21D0012010BD042979
:1047300007D190F83F30012BF7D1022384F83F30A6
:1047400018E0082907D190F84030012BEDD1022361
:1047500084F840300EE090F84130012BE5D1042977
:10476000EBD00829F3D0022380F8413002E0022385
:1047700080F83E3001222068FFF7C2FF23680E4A0E
:1047800093420AD15A6C42F400425A649A6802F089
:104790000702062A0BD10020C8E7B3F1804FF5D0FD
:1047A000064A9342F2D002F580629342EED01A6834
:1047B00042F001021A60EEE7002C014000040040C4
:1047C000FFF7ACBF10B5044691BB90F83E0094F8DB
:1047D0004230C0B20128DBB25ED1012B5DD1022391
:1047E000206800293AD184F83E3084F84230C3680A
:1047F00043F00203C3600122FFF782FF2368274AC8
:1048000093420AD0B3F1804F07D0A2F5943293427D
:1048100003D002F58062934204D19A6802F0070245
:10482000062A03D01A6842F001021A60002034E020
:10483000042905D190F83F0094F84330C0B2C9E78D
:1048400008290BBF90F8400094F8410094F84430D8
:1048500094F845300CBFC0B2C0B2BBE7042907D101
:1048600084F83F3084F84330C36843F00403C1E761
:10487000082907D184F8403084F84430C36843F0F5
:104880000803B7E70C2984F8413084F84530B2D1E9
:10489000C36843F01003ADE7012010BD002C0140B8
:1048A00030B590F83C300246012B4FF0020022D088
:1048B000136882F83D005C680D6824F070042C4396
:1048C00098685C600C4CA3420AD0B3F1804F07D0CB
:1048D000A4F59434A34203D004F58064A34204D128
:1048E000496820F08000014399600123002082F88C
:1048F0003D3082F83C0030BD002C014090F83C3047
:10490000012B1FD0CB688A6823F4407313434A6895
:1049100023F4806313430A6823F4006313430A6992
:1049200023F4805313434A6923F400531343CA69A1
:1049300023F48043134302685364002380F83C301F
:104940001846704702207047704770470368DA685E
:1049500022F49072DA605A6922F001025A61026B05
:10496000012A02BFDA6822F01002DA60202380F800
:104970003E3000230363704710B504460368C168E6
:104980001A6922F440520A431A6182680069D968A0
:104990000243606921F4B05121F00C0102430A4343
:1049A000DA605A69A16922F440720A435A610E4AD8
:1049B000934215D1FFF70CF919234343626820682D
:1049C0009200B3FBF2F36422B3FBF2F102FB11336A
:1049D0001B013233B3FBF2F303EB0113836010BD11
:1049E000FFF7E6F8E8E700BF003801402DE9F8439B
:1049F00004460E4617461D464FF47A784FF00009DC
:104A000023681B6836EA030301D1002020E0FEF78B
:104A1000F9FF0023B0FBF8F200214FF0FF30FCF764
:104A200095FB894508BF8542EAD09DB923680320DC
:104A3000DA6822F4D072DA605A6922F001025A610F
:104A4000202384F83D3084F83E30002384F83C3045
:104A5000BDE8F883FCF7E2FDC01B8542CED2E5E756
:104A600010B5044640B390F83D3003F0FF021BB987
:104A700080F83C20FEF7A6F82423226884F83D3015
:104A8000D368204623F40053D360FFF775FF2368F3
:104A900000201A6922F490421A615A6922F02A020F
:104AA0005A61DA6842F40052DA602023206484F804
:104AB0003D3084F83E3010BD0120FCE72DE9F8437D
:104AC000994690F83D300446202B0E46174648D1B3
:104AD000002944D0002A42D090F83C30012B40D02D
:104AE0000123002580F83C302123056480F83D3007
:104AF000FCF794FDA3688046B3F5805FA784E78444
:104B000003D123690BB935461E46002384F83C3097
:104B1000E38C9BB253B94B46424640212046FFF7F7
:104B200065FF50B9202384F83D3007E04B464246EC
:104B300080212046FFF75AFF10B10320BDE8F8831B
:104B400022684EB935F8023BC3F308035360E18C89
:104B5000013989B2E184DBE716F8013BF6E7012071
:104B6000ECE70220EAE72DE9F8431F4690F83E30D3
:104B70000446202B0E4691464FD100294BD0002AE7
:104B800049D090F83C30012B47D00123002580F814
:104B90003C302223056480F83E300563FCF73EFD7F
:104BA000A3688046B3F5805FA4F82C90A4F82E90FB
:104BB00003D123690BB935461E46002384F83C30E7
:104BC000E08D80B220B9202384F83E30BDE8F88320
:104BD0003B46424620212046FFF708FFF8B92368EC
:104BE0004EB95B68C3F3080325F8023BE38D013B34
:104BF0009BB2E385E4E7A268B2F5805F02D032B9E8
:104C0000226922B95968C9B206F8011BEEE7596852
:104C100001F07F01F8E70120D8E70220D6E7032062
:104C2000D4E77047704708B50023406AC385C38442
:104C3000FFF7F8FF08BD704707B58168836AB1F5D3
:104C4000805F026834D10169002934D15268C2F30F
:104C5000080223F8022BC28D8362013A92B2C28508
:104C60001ABB0368D96821F02001D960D96821F402
:104C70008071D960596921F001015961202180F8C2
:104C80003E10016B012920D10263D96821F0100187
:104C9000D9601968C90605D501921A6801925B6846
:104CA0000193019B818DFFF7C6FF03B05DF804FB04
:104CB00039B9016929B95268D2B21A70836A0133CD
:104CC000C9E7526802F07F02F7E7FDF7E3F9ECE786
:104CD000036837B51A68044612F00F0FD9685D698A
:104CE0000CD1950667D58D0665D590F83E30222B00
:104CF0005BD103B0BDE83040FFF79EBF05F0010077
:104D000001F49075054356D0D50705D5CB0542BFB4
:104D1000236C43F001032364550704D518B1236CB9
:104D200043F002032364930704D518B1236C43F0C6
:104D300004032364150707D501F0200303431EBFB6
:104D4000236C43F008032364236C73B3920608D5E5
:104D50008B0606D594F83E30222B02D12046FFF771
:104D60006BFF236820465B69256C03F0400305F068
:104D700008051D431BD0FFF7E9FD23685A69550656
:104D800010D55A69A06B22F040025A6150B1534BC2
:104D90004363FEF75BFB40B1A06B436B03B0BDE820
:104DA000304018472046FFF73DFF03B030BDFFF706
:104DB00039FF2564F9E7206B012855D1D00653D57A
:104DC000CD0651D5002101911A6801925A680192CD
:104DD000019A5A6912F040022AD0A06B0268526808
:104DE00092B2002AE1D0A58D9542DED9E285826992
:104DF000202A15D0DA6822F48072DA605A6922F02B
:104E000001025A615A6922F040025A61202284F854
:104E10003E202163DA6822F01002DA60FEF7F8FA29
:104E2000E38DA18DC91A89B22046FFF704FFBCE7C4
:104E3000E18D88B2E18D89B20029B6D0A18D091A21
:104E400089B20029B1D0D86820F49070D860586930
:104E500020F001005861202084F83E002263DA68C7
:104E600022F01002DA60DFE7100626D50D0624D501
:104E700094F83D20212A98D1A168226AB1F5805F7B
:104E800016D12169A1B932F8021BC1F3080159609A
:104E90002262E28C013A92B2E284002A85D1DA6879
:104EA00022F08002DA60DA6842F04002DA607CE7E1
:104EB000511C216212785A60EBE750067FF575AFFE
:104EC0004A067FF572AFDA68204622F04002DA60C7
:104ED000202384F83D30FFF7A4FE66E7274C000846
:104EE000C28582858162034622220020186483F8ED
:104EF0003C0083F83E201B68DA6842F48072DA6076
:104F00005A6942F001025A61DA6842F02002DA601E
:104F1000704770B490F83E60202E10D161B15AB144
:104F200090F83C40012C0AD0012480F83C40002439
:104F3000046370BCFFF7D4BF012070BC704702202F
:104F4000FBE703788B5443780A445370837893705B
:104F5000C378D3707047000007B54B1E092B019032
:104F60000ED80239082906D8DFE801F00D0F111319
:104F70001517191B1D0001220C4901A8FFF7E1FFBD
:104F800003B05DF804FB0522F6E70922F4E70D22E1
:104F9000F2E71122F0E71522EEE71922ECE71D22D5
:104FA000EAE72122E8E72522E6E700BF7C070020A8
:104FB000431E092B37D824221C4B02381A700828AC
:104FC00006D8DFE800F0090D1115191D21262B0068
:104FD000052206205A71704709220A205A7270472A
:104FE0000D220E205A737047112212205A747047F6
:104FF000152216205A75704719221A205A767047C2
:105000001D221E205A7770472122222083F821205A
:1050100070472522262083F82520704729222A2040
:1050200083F8292070470020704700BF7C070020CC
:105030002DE9F04F914287B09946DDE910530E46B5
:10504000129C0290039333D14FF0000B8B004FEA78
:105050008902043C0193029B9B452FDAA04600275E
:105060000AE000234FF0000A48F8043F039B03EBDB
:105070008703564508DC01374F45F2DB019B0BF1F6
:10508000010B14441D44E6E7196855F82A000592FF
:105090000493FBF74FFE0146D8F80000FBF742FDF2
:1050A000DDE90432C8F800000AF1010A1344E0E720
:1050B000044807B0BDE8F04F03F0F6BB07B0BDE809
:1050C000F08F00BF05BC00082DE9F04F914FA7B04D
:1050D00016AD89460490089297E80F0085E80F0006
:1050E0008D4B1AAE10370A9397E80F00102786E809
:1050F0000F00002600244FF07E5B0DF1880A3A462F
:1051000031461EA8CDE91066CDE912660B94CDF8A4
:1051100030B00D94CDF838B00F9403F0BDFB3A4693
:105120003146504603F0B8FB4846CDE91466099471
:10513000FBF772F902460B46CDE90623049B774F35
:1051400003F10040FBF768F9DDE9062304F0ACFC4D
:10515000022210ABCDE90401CDE9005711461046FB
:1051600002930123FFF764FF08AB01930AAB00939E
:1051700001230DF148081A461946CDF8088002208F
:10518000FFF756FF12991098FBF7CCFCDFF89081DF
:105190001399C8F800001198FBF7C4FC1EABC8F8BF
:1051A000040002935F4B604ECDE9005302231A4680
:1051B00019461846FFF73CFF02231AAA01921EAABD
:1051C00019461846CDF808A000921A46FFF730FF9E
:1051D00022985649FBF7A6FC214630602398FBF73E
:1051E000A1FC214670602498FBF79CFC4F49B060FD
:1051F0002598FBF797FC02230DF1300A14AAF06002
:105200001946CDE9016201201A46CDF800A0FFF74A
:105210000FFF14AA0123009202220DF124090EAD02
:10522000114618460195CDF80890FFF701FF09983F
:105230003F49FBF777FC01465846FBF72FFE10AAC3
:10524000CDE9015202220990114610460123009631
:10525000FFF7EEFE0123374D10AA194600920220F7
:105260001A46CDE90195FFF7E3FE01230222184615
:105270001146CDE90189CDF800A0FFF7D9FEDDE99F
:105280000401FBF7F9FB0999FBF74AFC012310AA7B
:105290001946CDE9019209901A4602200095FFF7C0
:1052A000C7FED8F800001099FBF73CFC1199386054
:1052B000D8F80400FBF736FC1EAA02237860CDE97B
:1052C00001A20122184611460095FFF7B1FE1E9972
:1052D0005846FBF725FC1F991E902046FBF720FC43
:1052E00020991F902046FBF71BFC219920905846DF
:1052F000FBF716FC0B4B2190CDE901631EAB00932D
:10530000022318461A461946FFF792FE386827B05E
:10531000BDE8F08F58B100080AD7A33BD80700209A
:10532000E807002038000020C8070020FFE6DB2E39
:1053300017B7D138B00700202DE9F04F914FA7B033
:1053400016AD89460490089297E80F0085E80F0093
:105350008D4B1AAE10370A9397E80F00102786E896
:105360000F00002600244FF07E5B0DF1880A3A46BC
:1053700031461EA8CDE91066CDE912660B94CDF832
:1053800030B00D94CDF838B00F9403F085FA3A465A
:105390003146504603F080FA4846CDE91466099438
:1053A000FBF73AF802460B46CDE90623049B774FFC
:1053B00003F10040FBF730F8DDE9062304F074FB4D
:1053C000022210ABCDE90401CDE900571146104689
:1053D00002930123FFF72CFE08AB01930AAB009365
:1053E00001230DF148081A461946CDF8088002201D
:1053F000FFF71EFE12991098FBF794FBDFF89081DF
:105400001399C8F800001198FBF78CFB1EABC8F885
:10541000040002935F4B604ECDE9005302231A460D
:1054200019461846FFF704FE02231AAA01921EAA83
:1054300019461846CDF808A000921A46FFF7F8FD65
:1054400022985649FBF76EFB214630602398FBF704
:1054500069FB214670602498FBF764FB4F49B060FC
:105460002598FBF75FFB02230DF1300A14AAF060C8
:105470001946CDE9016201201A46CDF800A0FFF7D8
:10548000D7FD14AA0123009202220DF124090EADCA
:10549000114618460195CDF80890FFF7C9FD099807
:1054A0003F49FBF73FFB01465846FBF7F7FC10AAC4
:1054B000CDE90152022209901146104601230096BF
:1054C000FFF7B6FD0123374D10AA194600920220BE
:1054D0001A46CDE90195FFF7ABFD012302221846DC
:1054E0001146CDE90189CDF800A0FFF7A1FDDDE966
:1054F0000401FBF7C1FA0999FBF712FB012310AA7B
:105500001946CDE9019209901A4602200095FFF74D
:105510008FFDD8F800001099FBF704FB1199386053
:10552000D8F80400FBF7FEFA1EAA02237860CDE942
:1055300001A20122184611460095FFF779FD1E9938
:105540005846FBF7EDFA1F991E902046FBF7E8FA44
:1055500020991F902046FBF7E3FA219920905846A6
:10556000FBF7DEFA0B4B2190CDE901631EAB0093F4
:10557000022318461A461946FFF75AFD386827B025
:10558000BDE8F08F58B100080AD7A33BE007002020
:10559000F007002028000020B8070020FFE6DB2EDF
:1055A00017B7D138A807002090F90030002B0CDC89
:1055B0000DD190F90130002B0BDC0CD190F90230A9
:1055C000002B0ADC0BD10720704700207047042015
:1055D0007047012070470520704702207047062061
:1055E000704707B50323009002226B21D020FCF7FF
:1055F000DAFA03B05DF804FB07B502230090042239
:105600001B21D020FCF7CFFA03B05DF804FB07B5EF
:105610000223009004221C21D020FCF7C4FA03B01E
:105620005DF804FB034606226B21D020FCF7E0BAAC
:10563000034605226A21D020FCF7DABA034601228C
:105640003721D020FCF7D4BA08B50220FFF7C9FFF4
:105650000320FFF7D1FF0020FFF7D9FF0020FFF75D
:10566000E1FF0020FFF7E4FFBDE808400020FFF75E
:10567000E5BF0000002310B5554888B08DF8003014
:10568000FCF7B8FF6B46012275216820FCF70AFA87
:10569000504803F08FF99DF80030682B0CD0BFF311
:1056A0004F8F4D494D4BCA6802F4E0621343CB6003
:1056B000BFF34F8F00BFFDE701F0E0FD002840F091
:1056C0008280782001F07AFD10B9424803F072F927
:1056D000782001F0BFFB10B9414803F06BF9C820F6
:1056E00001F02AFD10B93F4803F064F902F0F8F820
:1056F00010B93D4803F05EF93C48FFF755FF0246FC
:105700003B48FFF751FF01463A48FFF74DFF830141
:1057100043EAC10343EA020080B202F0EBF810B999
:10572000354803F047F940F2731002F015FC10B948
:10573000324803F03FF9C82002F04CFA10B9304863
:1057400003F038F905A902A801F02AFF072833D190
:1057500001A801F03FFB019C0298FBF797FA214654
:10576000FBF7E8FAFBF7ACFC02900398FBF78EFA24
:105770002146FBF7DFFAFBF7A3FC03900498FBF745
:1057800085FA2146FBF7D6FAFBF79AFC049002A8AB
:1057900002F050F90DF1020001F03CFBBDF80220CF
:1057A000059B05A853430593069B53430693079B0C
:1057B0005343079302F0A6F9012001F0B3FE10B99C
:1057C000104803F0F7F81048FCF714FF08B010BDBC
:1057D000F00600201CBC000800ED00E00400FA0503
:1057E0003CBC000860BC000885BC000848000020E4
:1057F0004B0000204E000020B6BC0008DBBC0008B7
:10580000FFBC000822BD0008340700200000000093
:105810002DE9F04F764C89B00DF10B0301937549DA
:1058200003AB7548009404AA02F080FC2388DB05D2
:1058300040F1D5800498FBF729FA4FF04251FBF76D
:1058400079FA6E4E804630600598FBF71FFA4FF0EC
:105850004251FBF76FFADFF8A8A18346CAF80000AF
:105860000698FBF713FA4FF04251FBF763FA654FC6
:10587000044638600798FBF709FA4FF04251FBF7EE
:1058800059FA8146604D4FF0404128605846FBF779
:1058900051FA4946FBF74EFA414681464046FBF72E
:1058A00041F92146FBF746FA01464846FBF73AF92B
:1058B000FAF7B2FD04F0D0F84BA3D3E90023FAF7CE
:1058C00003FEFBF7D9F8514BD7F800901860494612
:1058D0004846FBF727F9DAF800B004464FF040419C
:1058E0005846FBF727FA5946FBF724FA214680462B
:1058F0004846FBF71FFA01464046FBF711F94FF007
:105900007E51FBF70FF9FAF787FD8946316880462B
:105910000846FBF707F95946FBF70CFA2968834656
:105920002046FBF707FA01465846FBF7FBF8FAF763
:1059300073FD42464B4604F0B7F82BA3D3E900238E
:10594000FAF7C2FDFBF798F8314BDAF80090D7F878
:1059500000A03768186039463846FBF7EBF949462E
:1059600004464846FBF7E6F901462046FBF7DAF81D
:10597000514604465046FBF7DDF901462046FBF749
:10598000CFF8D5F80080044641464046FBF7D2F9EF
:1059900001462046FBF7C4F8FAF73EFD04460D46E3
:1059A00048465146FBF7C6F9414606463846FBF7DE
:1059B000C1F901463046FBF7B5F80146FBF7B2F8EE
:1059C000FAF72AFD22462B4604F06EF806A3D3E927
:1059D0000023FAF779FDFBF74FF80E4B186009B07A
:1059E000BDE8F08FAFF300806666666666A64C4041
:1059F0001C080020040800200A0800205400002091
:105A0000100800201408002018080020FC070020BF
:105A1000F80700200008002008B5012202211048E4
:105A2000FDF73AFE0F20FBF771FE002202210C4821
:105A3000FDF732FE0B490B881A060FD503F03F0223
:105A4000094B1B8803EB0243AA2253434FF47A729B
:105A5000B3FBF2F3054A136000230B8008BD00BFBF
:105A6000000C01401E0800202008002094050020A2
:105A700038B5264B044698422AD1037F042B27D100
:105A8000234A1388190623D413F04001214D20D056
:105A900043F0800308211380FEF790FA41F21112BF
:105AA00023682880196A114208D140F24442196AD9
:105AB000114202BF1A6822F001021A601A6A22F427
:105AC00000721A621A6A1A621A6842F001021A60B7
:105AD00038BD4023138041F2111203682980196AEE
